{
  "_format": "hh-sol-artifact-1",
  "contractName": "Market",
  "sourceName": "contracts/Market.sol",
  "abi": [
    {
      "anonymous": false,
      "inputs": [
        {
          "indexed": true,
          "internalType": "uint256",
          "name": "itemId",
          "type": "uint256"
        },
        {
          "indexed": false,
          "internalType": "uint256",
          "name": "price",
          "type": "uint256"
        },
        {
          "indexed": true,
          "internalType": "uint256",
          "name": "tokenId",
          "type": "uint256"
        },
        {
          "indexed": true,
          "internalType": "address",
          "name": "tokenAddress",
          "type": "address"
        },
        {
          "indexed": false,
          "internalType": "address",
          "name": "seller",
          "type": "address"
        },
        {
          "indexed": false,
          "internalType": "address",
          "name": "owner",
          "type": "address"
        }
      ],
      "name": "MarketItemCreated",
      "type": "event"
    },
    {
      "inputs": [
        {
          "internalType": "address",
          "name": "tokenAddress",
          "type": "address"
        },
        {
          "internalType": "uint256",
          "name": "itemId",
          "type": "uint256"
        }
      ],
      "name": "buyMarketItem",
      "outputs": [],
      "stateMutability": "payable",
      "type": "function"
    },
    {
      "inputs": [
        {
          "internalType": "address",
          "name": "tokenAddress",
          "type": "address"
        },
        {
          "internalType": "uint256",
          "name": "itemId",
          "type": "uint256"
        }
      ],
      "name": "buyMarketItemERC1155",
      "outputs": [],
      "stateMutability": "payable",
      "type": "function"
    },
    {
      "inputs": [
        {
          "internalType": "address",
          "name": "tokenAddress",
          "type": "address"
        },
        {
          "internalType": "uint256",
          "name": "tokenId",
          "type": "uint256"
        },
        {
          "internalType": "uint256",
          "name": "price",
          "type": "uint256"
        }
      ],
      "name": "createMarketItem",
      "outputs": [],
      "stateMutability": "payable",
      "type": "function"
    },
    {
      "inputs": [
        {
          "internalType": "address",
          "name": "tokenAddress",
          "type": "address"
        },
        {
          "internalType": "uint256",
          "name": "tokenId",
          "type": "uint256"
        },
        {
          "internalType": "uint256",
          "name": "price",
          "type": "uint256"
        }
      ],
      "name": "createMarketItemERC1155",
      "outputs": [],
      "stateMutability": "payable",
      "type": "function"
    },
    {
      "inputs": [],
      "name": "getAllUnsoldMarketItems",
      "outputs": [
        {
          "components": [
            {
              "internalType": "uint256",
              "name": "itemId",
              "type": "uint256"
            },
            {
              "internalType": "uint256",
              "name": "tokenId",
              "type": "uint256"
            },
            {
              "internalType": "uint256",
              "name": "price",
              "type": "uint256"
            },
            {
              "internalType": "address",
              "name": "tokenAddress",
              "type": "address"
            },
            {
              "internalType": "address payable",
              "name": "seller",
              "type": "address"
            },
            {
              "internalType": "address payable",
              "name": "owner",
              "type": "address"
            },
            {
              "internalType": "bool",
              "name": "sold",
              "type": "bool"
            },
            {
              "internalType": "bool",
              "name": "isERC1155",
              "type": "bool"
            }
          ],
          "internalType": "struct Market.MarketItem[]",
          "name": "",
          "type": "tuple[]"
        }
      ],
      "stateMutability": "view",
      "type": "function"
    },
    {
      "inputs": [],
      "name": "getAllUnsoldMarketItemsERC1155",
      "outputs": [
        {
          "components": [
            {
              "internalType": "uint256",
              "name": "itemId",
              "type": "uint256"
            },
            {
              "internalType": "uint256",
              "name": "tokenId",
              "type": "uint256"
            },
            {
              "internalType": "uint256",
              "name": "price",
              "type": "uint256"
            },
            {
              "internalType": "address",
              "name": "tokenAddress",
              "type": "address"
            },
            {
              "internalType": "address payable",
              "name": "seller",
              "type": "address"
            },
            {
              "internalType": "address payable",
              "name": "owner",
              "type": "address"
            },
            {
              "internalType": "bool",
              "name": "sold",
              "type": "bool"
            },
            {
              "internalType": "bool",
              "name": "isERC1155",
              "type": "bool"
            }
          ],
          "internalType": "struct Market.MarketItem[]",
          "name": "",
          "type": "tuple[]"
        }
      ],
      "stateMutability": "view",
      "type": "function"
    },
    {
      "inputs": [
        {
          "internalType": "uint256",
          "name": "marketItemId",
          "type": "uint256"
        }
      ],
      "name": "getMarketItemByItemId",
      "outputs": [
        {
          "components": [
            {
              "internalType": "uint256",
              "name": "itemId",
              "type": "uint256"
            },
            {
              "internalType": "uint256",
              "name": "tokenId",
              "type": "uint256"
            },
            {
              "internalType": "uint256",
              "name": "price",
              "type": "uint256"
            },
            {
              "internalType": "address",
              "name": "tokenAddress",
              "type": "address"
            },
            {
              "internalType": "address payable",
              "name": "seller",
              "type": "address"
            },
            {
              "internalType": "address payable",
              "name": "owner",
              "type": "address"
            },
            {
              "internalType": "bool",
              "name": "sold",
              "type": "bool"
            },
            {
              "internalType": "bool",
              "name": "isERC1155",
              "type": "bool"
            }
          ],
          "internalType": "struct Market.MarketItem",
          "name": "",
          "type": "tuple"
        }
      ],
      "stateMutability": "view",
      "type": "function"
    },
    {
      "inputs": [
        {
          "internalType": "uint256",
          "name": "marketItemId",
          "type": "uint256"
        }
      ],
      "name": "getMarketItemByItemIdERC1155",
      "outputs": [
        {
          "components": [
            {
              "internalType": "uint256",
              "name": "itemId",
              "type": "uint256"
            },
            {
              "internalType": "uint256",
              "name": "tokenId",
              "type": "uint256"
            },
            {
              "internalType": "uint256",
              "name": "price",
              "type": "uint256"
            },
            {
              "internalType": "address",
              "name": "tokenAddress",
              "type": "address"
            },
            {
              "internalType": "address payable",
              "name": "seller",
              "type": "address"
            },
            {
              "internalType": "address payable",
              "name": "owner",
              "type": "address"
            },
            {
              "internalType": "bool",
              "name": "sold",
              "type": "bool"
            },
            {
              "internalType": "bool",
              "name": "isERC1155",
              "type": "bool"
            }
          ],
          "internalType": "struct Market.MarketItem",
          "name": "",
          "type": "tuple"
        }
      ],
      "stateMutability": "view",
      "type": "function"
    },
    {
      "inputs": [],
      "name": "getMarketItemsCreatedByCaller",
      "outputs": [
        {
          "components": [
            {
              "internalType": "uint256",
              "name": "itemId",
              "type": "uint256"
            },
            {
              "internalType": "uint256",
              "name": "tokenId",
              "type": "uint256"
            },
            {
              "internalType": "uint256",
              "name": "price",
              "type": "uint256"
            },
            {
              "internalType": "address",
              "name": "tokenAddress",
              "type": "address"
            },
            {
              "internalType": "address payable",
              "name": "seller",
              "type": "address"
            },
            {
              "internalType": "address payable",
              "name": "owner",
              "type": "address"
            },
            {
              "internalType": "bool",
              "name": "sold",
              "type": "bool"
            },
            {
              "internalType": "bool",
              "name": "isERC1155",
              "type": "bool"
            }
          ],
          "internalType": "struct Market.MarketItem[]",
          "name": "",
          "type": "tuple[]"
        }
      ],
      "stateMutability": "view",
      "type": "function"
    },
    {
      "inputs": [],
      "name": "getMarketItemsCreatedByCallerERC1155",
      "outputs": [
        {
          "components": [
            {
              "internalType": "uint256",
              "name": "itemId",
              "type": "uint256"
            },
            {
              "internalType": "uint256",
              "name": "tokenId",
              "type": "uint256"
            },
            {
              "internalType": "uint256",
              "name": "price",
              "type": "uint256"
            },
            {
              "internalType": "address",
              "name": "tokenAddress",
              "type": "address"
            },
            {
              "internalType": "address payable",
              "name": "seller",
              "type": "address"
            },
            {
              "internalType": "address payable",
              "name": "owner",
              "type": "address"
            },
            {
              "internalType": "bool",
              "name": "sold",
              "type": "bool"
            },
            {
              "internalType": "bool",
              "name": "isERC1155",
              "type": "bool"
            }
          ],
          "internalType": "struct Market.MarketItem[]",
          "name": "",
          "type": "tuple[]"
        }
      ],
      "stateMutability": "view",
      "type": "function"
    },
    {
      "inputs": [],
      "name": "getMarketItemsOwnedByCaller",
      "outputs": [
        {
          "components": [
            {
              "internalType": "uint256",
              "name": "itemId",
              "type": "uint256"
            },
            {
              "internalType": "uint256",
              "name": "tokenId",
              "type": "uint256"
            },
            {
              "internalType": "uint256",
              "name": "price",
              "type": "uint256"
            },
            {
              "internalType": "address",
              "name": "tokenAddress",
              "type": "address"
            },
            {
              "internalType": "address payable",
              "name": "seller",
              "type": "address"
            },
            {
              "internalType": "address payable",
              "name": "owner",
              "type": "address"
            },
            {
              "internalType": "bool",
              "name": "sold",
              "type": "bool"
            },
            {
              "internalType": "bool",
              "name": "isERC1155",
              "type": "bool"
            }
          ],
          "internalType": "struct Market.MarketItem[]",
          "name": "",
          "type": "tuple[]"
        }
      ],
      "stateMutability": "view",
      "type": "function"
    },
    {
      "inputs": [],
      "name": "getMarketItemsOwnedByCallerERC1155",
      "outputs": [
        {
          "components": [
            {
              "internalType": "uint256",
              "name": "itemId",
              "type": "uint256"
            },
            {
              "internalType": "uint256",
              "name": "tokenId",
              "type": "uint256"
            },
            {
              "internalType": "uint256",
              "name": "price",
              "type": "uint256"
            },
            {
              "internalType": "address",
              "name": "tokenAddress",
              "type": "address"
            },
            {
              "internalType": "address payable",
              "name": "seller",
              "type": "address"
            },
            {
              "internalType": "address payable",
              "name": "owner",
              "type": "address"
            },
            {
              "internalType": "bool",
              "name": "sold",
              "type": "bool"
            },
            {
              "internalType": "bool",
              "name": "isERC1155",
              "type": "bool"
            }
          ],
          "internalType": "struct Market.MarketItem[]",
          "name": "",
          "type": "tuple[]"
        }
      ],
      "stateMutability": "view",
      "type": "function"
    },
    {
      "inputs": [
        {
          "internalType": "address",
          "name": "",
          "type": "address"
        },
        {
          "internalType": "address",
          "name": "",
          "type": "address"
        },
        {
          "internalType": "uint256[]",
          "name": "",
          "type": "uint256[]"
        },
        {
          "internalType": "uint256[]",
          "name": "",
          "type": "uint256[]"
        },
        {
          "internalType": "bytes",
          "name": "",
          "type": "bytes"
        }
      ],
      "name": "onERC1155BatchReceived",
      "outputs": [
        {
          "internalType": "bytes4",
          "name": "",
          "type": "bytes4"
        }
      ],
      "stateMutability": "nonpayable",
      "type": "function"
    },
    {
      "inputs": [
        {
          "internalType": "address",
          "name": "",
          "type": "address"
        },
        {
          "internalType": "address",
          "name": "",
          "type": "address"
        },
        {
          "internalType": "uint256",
          "name": "",
          "type": "uint256"
        },
        {
          "internalType": "uint256",
          "name": "",
          "type": "uint256"
        },
        {
          "internalType": "bytes",
          "name": "",
          "type": "bytes"
        }
      ],
      "name": "onERC1155Received",
      "outputs": [
        {
          "internalType": "bytes4",
          "name": "",
          "type": "bytes4"
        }
      ],
      "stateMutability": "nonpayable",
      "type": "function"
    },
    {
      "inputs": [
        {
          "internalType": "bytes4",
          "name": "interfaceId",
          "type": "bytes4"
        }
      ],
      "name": "supportsInterface",
      "outputs": [
        {
          "internalType": "bool",
          "name": "",
          "type": "bool"
        }
      ],
      "stateMutability": "view",
      "type": "function"
    }
  ],
  "bytecode": "0x608060405234801561001057600080fd5b5060016000819055506134d8806100286000396000f3fe6080604052600436106100e85760003560e01c806358eb2df51161008a578063986f8ba411610059578063986f8ba4146102cf578063a67a34b5146102eb578063bc197c8114610316578063f23a6e6114610353576100e8565b806358eb2df51461020e57806363ee24001461022a5780637935de86146102675780637ca518af146102a4576100e8565b806334726ba7116100c657806334726ba7146101715780633b8729ba1461019c5780633df04158146101c757806358d6b15d146101f2576100e8565b806301ffc9a7146100ed578063021e67311461012a57806331d0148514610146575b600080fd5b3480156100f957600080fd5b50610114600480360381019061010f9190612c49565b610390565b60405161012191906130b4565b60405180910390f35b610144600480360381019061013f9190612bbe565b61040a565b005b34801561015257600080fd5b5061015b61065b565b6040516101689190613092565b60405180910390f35b34801561017d57600080fd5b50610186610a27565b6040516101939190613092565b60405180910390f35b3480156101a857600080fd5b506101b1610d66565b6040516101be9190613092565b60405180910390f35b3480156101d357600080fd5b506101dc611132565b6040516101e99190613092565b60405180910390f35b61020c60048036038101906102079190612bfa565b6114fe565b005b61022860048036038101906102239190612bfa565b611848565b005b34801561023657600080fd5b50610251600480360381019061024c9190612c72565b611b8f565b60405161025e919061314a565b60405180910390f35b34801561027357600080fd5b5061028e60048036038101906102899190612c72565b611d13565b60405161029b919061314a565b60405180910390f35b3480156102b057600080fd5b506102b9611e97565b6040516102c69190613092565b60405180910390f35b6102e960048036038101906102e49190612bbe565b6121d6565b005b3480156102f757600080fd5b50610300612424565b60405161030d9190613092565b60405180910390f35b34801561032257600080fd5b5061033d60048036038101906103389190612a70565b6127f0565b60405161034a91906130cf565b60405180910390f35b34801561035f57600080fd5b5061037a60048036038101906103759190612b2f565b612805565b60405161038791906130cf565b60405180910390f35b60007f4e2312e0000000000000000000000000000000000000000000000000000000007bffffffffffffffffffffffffffffffffffffffffffffffffffffffff1916827bffffffffffffffffffffffffffffffffffffffffffffffffffffffff1916148061040357506104028261281a565b5b9050919050565b60026000541415610450576040517f08c379a00000000000000000000000000000000000000000000000000000000081526004016104479061312a565b60405180910390fd5b60026000819055506000600660008381526020019081526020016000206002015490506000600660008481526020019081526020016000206001015490508134146104d0576040517f08c379a00000000000000000000000000000000000000000000000000000000081526004016104c7906130ea565b60405180910390fd5b6006600084815260200190815260200160002060040160009054906101000a900473ffffffffffffffffffffffffffffffffffffffff1673ffffffffffffffffffffffffffffffffffffffff166108fc349081150290604051600060405180830381858888f1935050505015801561054c573d6000803e3d6000fd5b508373ffffffffffffffffffffffffffffffffffffffff1663f242432a30338460006040518563ffffffff1660e01b815260040161058d949392919061303a565b600060405180830381600087803b1580156105a757600080fd5b505af11580156105bb573d6000803e3d6000fd5b50505050336006600085815260200190815260200160002060050160006101000a81548173ffffffffffffffffffffffffffffffffffffffff021916908373ffffffffffffffffffffffffffffffffffffffff16021790555060016006600085815260200190815260200160002060050160146101000a81548160ff02191690831515021790555061064d6004612884565b505060016000819055505050565b60606000610669600161289a565b905060008060005b83811015610712573373ffffffffffffffffffffffffffffffffffffffff16600560006001846106a19190613285565b815260200190815260200160002060040160009054906101000a900473ffffffffffffffffffffffffffffffffffffffff1673ffffffffffffffffffffffffffffffffffffffff1614156106ff576001836106fc9190613285565b92505b808061070a906133b6565b915050610671565b5060008267ffffffffffffffff811115610755577f4e487b7100000000000000000000000000000000000000000000000000000000600052604160045260246000fd5b60405190808252806020026020018201604052801561078e57816020015b61077b6128a8565b8152602001906001900390816107735790505b50905060005b84811015610a1c573373ffffffffffffffffffffffffffffffffffffffff16600560006001846107c49190613285565b815260200190815260200160002060040160009054906101000a900473ffffffffffffffffffffffffffffffffffffffff1673ffffffffffffffffffffffffffffffffffffffff161415610a09576000600560006001846108259190613285565b8152602001908152602001600020600001549050600060056000838152602001908152602001600020905080604051806101000160405290816000820154815260200160018201548152602001600282015481526020016003820160009054906101000a900473ffffffffffffffffffffffffffffffffffffffff1673ffffffffffffffffffffffffffffffffffffffff1673ffffffffffffffffffffffffffffffffffffffff1681526020016004820160009054906101000a900473ffffffffffffffffffffffffffffffffffffffff1673ffffffffffffffffffffffffffffffffffffffff1673ffffffffffffffffffffffffffffffffffffffff1681526020016005820160009054906101000a900473ffffffffffffffffffffffffffffffffffffffff1673ffffffffffffffffffffffffffffffffffffffff1673ffffffffffffffffffffffffffffffffffffffff1681526020016005820160149054906101000a900460ff161515151581526020016005820160159054906101000a900460ff1615151515815250508486815181106109ec577f4e487b7100000000000000000000000000000000000000000000000000000000600052603260045260246000fd5b6020026020010181905250600185610a049190613285565b945050505b8080610a14906133b6565b915050610794565b508094505050505090565b60606000610a35600361289a565b90506000610a43600461289a565b82610a4e91906132db565b90506000808267ffffffffffffffff811115610a93577f4e487b7100000000000000000000000000000000000000000000000000000000600052604160045260246000fd5b604051908082528060200260200182016040528015610acc57816020015b610ab96128a8565b815260200190600190039081610ab15790505b50905060005b84811015610d5b57600073ffffffffffffffffffffffffffffffffffffffff1660066000600184610b039190613285565b815260200190815260200160002060050160009054906101000a900473ffffffffffffffffffffffffffffffffffffffff1673ffffffffffffffffffffffffffffffffffffffff161415610d4857600060066000600184610b649190613285565b8152602001908152602001600020600001549050600060066000838152602001908152602001600020905080604051806101000160405290816000820154815260200160018201548152602001600282015481526020016003820160009054906101000a900473ffffffffffffffffffffffffffffffffffffffff1673ffffffffffffffffffffffffffffffffffffffff1673ffffffffffffffffffffffffffffffffffffffff1681526020016004820160009054906101000a900473ffffffffffffffffffffffffffffffffffffffff1673ffffffffffffffffffffffffffffffffffffffff1673ffffffffffffffffffffffffffffffffffffffff1681526020016005820160009054906101000a900473ffffffffffffffffffffffffffffffffffffffff1673ffffffffffffffffffffffffffffffffffffffff1673ffffffffffffffffffffffffffffffffffffffff1681526020016005820160149054906101000a900460ff161515151581526020016005820160159054906101000a900460ff161515151581525050848681518110610d2b577f4e487b7100000000000000000000000000000000000000000000000000000000600052603260045260246000fd5b6020026020010181905250600185610d439190613285565b945050505b8080610d53906133b6565b915050610ad2565b508094505050505090565b60606000610d74600161289a565b905060008060005b83811015610e1d573373ffffffffffffffffffffffffffffffffffffffff1660056000600184610dac9190613285565b815260200190815260200160002060050160009054906101000a900473ffffffffffffffffffffffffffffffffffffffff1673ffffffffffffffffffffffffffffffffffffffff161415610e0a57600183610e079190613285565b92505b8080610e15906133b6565b915050610d7c565b5060008267ffffffffffffffff811115610e60577f4e487b7100000000000000000000000000000000000000000000000000000000600052604160045260246000fd5b604051908082528060200260200182016040528015610e9957816020015b610e866128a8565b815260200190600190039081610e7e5790505b50905060005b84811015611127573373ffffffffffffffffffffffffffffffffffffffff1660056000600184610ecf9190613285565b815260200190815260200160002060050160009054906101000a900473ffffffffffffffffffffffffffffffffffffffff1673ffffffffffffffffffffffffffffffffffffffff16141561111457600060056000600184610f309190613285565b8152602001908152602001600020600001549050600060056000838152602001908152602001600020905080604051806101000160405290816000820154815260200160018201548152602001600282015481526020016003820160009054906101000a900473ffffffffffffffffffffffffffffffffffffffff1673ffffffffffffffffffffffffffffffffffffffff1673ffffffffffffffffffffffffffffffffffffffff1681526020016004820160009054906101000a900473ffffffffffffffffffffffffffffffffffffffff1673ffffffffffffffffffffffffffffffffffffffff1673ffffffffffffffffffffffffffffffffffffffff1681526020016005820160009054906101000a900473ffffffffffffffffffffffffffffffffffffffff1673ffffffffffffffffffffffffffffffffffffffff1673ffffffffffffffffffffffffffffffffffffffff1681526020016005820160149054906101000a900460ff161515151581526020016005820160159054906101000a900460ff1615151515815250508486815181106110f7577f4e487b7100000000000000000000000000000000000000000000000000000000600052603260045260246000fd5b602002602001018190525060018561110f9190613285565b945050505b808061111f906133b6565b915050610e9f565b508094505050505090565b60606000611140600361289a565b905060008060005b838110156111e9573373ffffffffffffffffffffffffffffffffffffffff16600660006001846111789190613285565b815260200190815260200160002060040160009054906101000a900473ffffffffffffffffffffffffffffffffffffffff1673ffffffffffffffffffffffffffffffffffffffff1614156111d6576001836111d39190613285565b92505b80806111e1906133b6565b915050611148565b5060008267ffffffffffffffff81111561122c577f4e487b7100000000000000000000000000000000000000000000000000000000600052604160045260246000fd5b60405190808252806020026020018201604052801561126557816020015b6112526128a8565b81526020019060019003908161124a5790505b50905060005b848110156114f3573373ffffffffffffffffffffffffffffffffffffffff166006600060018461129b9190613285565b815260200190815260200160002060040160009054906101000a900473ffffffffffffffffffffffffffffffffffffffff1673ffffffffffffffffffffffffffffffffffffffff1614156114e0576000600660006001846112fc9190613285565b8152602001908152602001600020600001549050600060066000838152602001908152602001600020905080604051806101000160405290816000820154815260200160018201548152602001600282015481526020016003820160009054906101000a900473ffffffffffffffffffffffffffffffffffffffff1673ffffffffffffffffffffffffffffffffffffffff1673ffffffffffffffffffffffffffffffffffffffff1681526020016004820160009054906101000a900473ffffffffffffffffffffffffffffffffffffffff1673ffffffffffffffffffffffffffffffffffffffff1673ffffffffffffffffffffffffffffffffffffffff1681526020016005820160009054906101000a900473ffffffffffffffffffffffffffffffffffffffff1673ffffffffffffffffffffffffffffffffffffffff1673ffffffffffffffffffffffffffffffffffffffff1681526020016005820160149054906101000a900460ff161515151581526020016005820160159054906101000a900460ff1615151515815250508486815181106114c3577f4e487b7100000000000000000000000000000000000000000000000000000000600052603260045260246000fd5b60200260200101819052506001856114db9190613285565b945050505b80806114eb906133b6565b91505061126b565b508094505050505090565b60026000541415611544576040517f08c379a000000000000000000000000000000000000000000000000000000000815260040161153b9061312a565b60405180910390fd5b60026000819055506000811161158f576040517f08c379a00000000000000000000000000000000000000000000000000000000081526004016115869061310a565b60405180910390fd5b6115996003612884565b60006115a5600361289a565b90506040518061010001604052808281526020018481526020018381526020018573ffffffffffffffffffffffffffffffffffffffff1681526020013373ffffffffffffffffffffffffffffffffffffffff168152602001600073ffffffffffffffffffffffffffffffffffffffff168152602001600015158152602001600115158152506006600083815260200190815260200160002060008201518160000155602082015181600101556040820151816002015560608201518160030160006101000a81548173ffffffffffffffffffffffffffffffffffffffff021916908373ffffffffffffffffffffffffffffffffffffffff16021790555060808201518160040160006101000a81548173ffffffffffffffffffffffffffffffffffffffff021916908373ffffffffffffffffffffffffffffffffffffffff16021790555060a08201518160050160006101000a81548173ffffffffffffffffffffffffffffffffffffffff021916908373ffffffffffffffffffffffffffffffffffffffff16021790555060c08201518160050160146101000a81548160ff02191690831515021790555060e08201518160050160156101000a81548160ff0219169083151502179055509050508373ffffffffffffffffffffffffffffffffffffffff1663f242432a33308660006040518563ffffffff1660e01b81526004016117b3949392919061303a565b600060405180830381600087803b1580156117cd57600080fd5b505af11580156117e1573d6000803e3d6000fd5b505050508373ffffffffffffffffffffffffffffffffffffffff1683827f9647d2e9a23c1809a0461ae22d7688427bce1e7e0b92d0cb92b0e7f4dd72dd9c8533600060405161183293929190613166565b60405180910390a4506001600081905550505050565b6002600054141561188e576040517f08c379a00000000000000000000000000000000000000000000000000000000081526004016118859061312a565b60405180910390fd5b6002600081905550600081116118d9576040517f08c379a00000000000000000000000000000000000000000000000000000000081526004016118d09061310a565b60405180910390fd5b6118e36001612884565b60006118ef600161289a565b90506040518061010001604052808281526020018481526020018381526020018573ffffffffffffffffffffffffffffffffffffffff1681526020013373ffffffffffffffffffffffffffffffffffffffff168152602001600073ffffffffffffffffffffffffffffffffffffffff168152602001600015158152602001600015158152506005600083815260200190815260200160002060008201518160000155602082015181600101556040820151816002015560608201518160030160006101000a81548173ffffffffffffffffffffffffffffffffffffffff021916908373ffffffffffffffffffffffffffffffffffffffff16021790555060808201518160040160006101000a81548173ffffffffffffffffffffffffffffffffffffffff021916908373ffffffffffffffffffffffffffffffffffffffff16021790555060a08201518160050160006101000a81548173ffffffffffffffffffffffffffffffffffffffff021916908373ffffffffffffffffffffffffffffffffffffffff16021790555060c08201518160050160146101000a81548160ff02191690831515021790555060e08201518160050160156101000a81548160ff0219169083151502179055509050508373ffffffffffffffffffffffffffffffffffffffff166323b872dd3330866040518463ffffffff1660e01b8152600401611afa93929190613003565b600060405180830381600087803b158015611b1457600080fd5b505af1158015611b28573d6000803e3d6000fd5b505050508373ffffffffffffffffffffffffffffffffffffffff1683827f9647d2e9a23c1809a0461ae22d7688427bce1e7e0b92d0cb92b0e7f4dd72dd9c85336000604051611b7993929190613166565b60405180910390a4506001600081905550505050565b611b976128a8565b60056000838152602001908152602001600020604051806101000160405290816000820154815260200160018201548152602001600282015481526020016003820160009054906101000a900473ffffffffffffffffffffffffffffffffffffffff1673ffffffffffffffffffffffffffffffffffffffff1673ffffffffffffffffffffffffffffffffffffffff1681526020016004820160009054906101000a900473ffffffffffffffffffffffffffffffffffffffff1673ffffffffffffffffffffffffffffffffffffffff1673ffffffffffffffffffffffffffffffffffffffff1681526020016005820160009054906101000a900473ffffffffffffffffffffffffffffffffffffffff1673ffffffffffffffffffffffffffffffffffffffff1673ffffffffffffffffffffffffffffffffffffffff1681526020016005820160149054906101000a900460ff161515151581526020016005820160159054906101000a900460ff1615151515815250509050919050565b611d1b6128a8565b60066000838152602001908152602001600020604051806101000160405290816000820154815260200160018201548152602001600282015481526020016003820160009054906101000a900473ffffffffffffffffffffffffffffffffffffffff1673ffffffffffffffffffffffffffffffffffffffff1673ffffffffffffffffffffffffffffffffffffffff1681526020016004820160009054906101000a900473ffffffffffffffffffffffffffffffffffffffff1673ffffffffffffffffffffffffffffffffffffffff1673ffffffffffffffffffffffffffffffffffffffff1681526020016005820160009054906101000a900473ffffffffffffffffffffffffffffffffffffffff1673ffffffffffffffffffffffffffffffffffffffff1673ffffffffffffffffffffffffffffffffffffffff1681526020016005820160149054906101000a900460ff161515151581526020016005820160159054906101000a900460ff1615151515815250509050919050565b60606000611ea5600161289a565b90506000611eb3600261289a565b82611ebe91906132db565b90506000808267ffffffffffffffff811115611f03577f4e487b7100000000000000000000000000000000000000000000000000000000600052604160045260246000fd5b604051908082528060200260200182016040528015611f3c57816020015b611f296128a8565b815260200190600190039081611f215790505b50905060005b848110156121cb57600073ffffffffffffffffffffffffffffffffffffffff1660056000600184611f739190613285565b815260200190815260200160002060050160009054906101000a900473ffffffffffffffffffffffffffffffffffffffff1673ffffffffffffffffffffffffffffffffffffffff1614156121b857600060056000600184611fd49190613285565b8152602001908152602001600020600001549050600060056000838152602001908152602001600020905080604051806101000160405290816000820154815260200160018201548152602001600282015481526020016003820160009054906101000a900473ffffffffffffffffffffffffffffffffffffffff1673ffffffffffffffffffffffffffffffffffffffff1673ffffffffffffffffffffffffffffffffffffffff1681526020016004820160009054906101000a900473ffffffffffffffffffffffffffffffffffffffff1673ffffffffffffffffffffffffffffffffffffffff1673ffffffffffffffffffffffffffffffffffffffff1681526020016005820160009054906101000a900473ffffffffffffffffffffffffffffffffffffffff1673ffffffffffffffffffffffffffffffffffffffff1673ffffffffffffffffffffffffffffffffffffffff1681526020016005820160149054906101000a900460ff161515151581526020016005820160159054906101000a900460ff16151515158152505084868151811061219b577f4e487b7100000000000000000000000000000000000000000000000000000000600052603260045260246000fd5b60200260200101819052506001856121b39190613285565b945050505b80806121c3906133b6565b915050611f42565b508094505050505090565b6002600054141561221c576040517f08c379a00000000000000000000000000000000000000000000000000000000081526004016122139061312a565b60405180910390fd5b600260008190555060006005600083815260200190815260200160002060020154905060006005600084815260200190815260200160002060010154905081341461229c576040517f08c379a0000000000000000000000000000000000000000000000000000000008152600401612293906130ea565b60405180910390fd5b6005600084815260200190815260200160002060040160009054906101000a900473ffffffffffffffffffffffffffffffffffffffff1673ffffffffffffffffffffffffffffffffffffffff166108fc349081150290604051600060405180830381858888f19350505050158015612318573d6000803e3d6000fd5b508373ffffffffffffffffffffffffffffffffffffffff166323b872dd3033846040518463ffffffff1660e01b815260040161235693929190613003565b600060405180830381600087803b15801561237057600080fd5b505af1158015612384573d6000803e3d6000fd5b50505050336005600085815260200190815260200160002060050160006101000a81548173ffffffffffffffffffffffffffffffffffffffff021916908373ffffffffffffffffffffffffffffffffffffffff16021790555060016005600085815260200190815260200160002060050160146101000a81548160ff0219169083151502179055506124166002612884565b505060016000819055505050565b60606000612432600361289a565b905060008060005b838110156124db573373ffffffffffffffffffffffffffffffffffffffff166006600060018461246a9190613285565b815260200190815260200160002060050160009054906101000a900473ffffffffffffffffffffffffffffffffffffffff1673ffffffffffffffffffffffffffffffffffffffff1614156124c8576001836124c59190613285565b92505b80806124d3906133b6565b91505061243a565b5060008267ffffffffffffffff81111561251e577f4e487b7100000000000000000000000000000000000000000000000000000000600052604160045260246000fd5b60405190808252806020026020018201604052801561255757816020015b6125446128a8565b81526020019060019003908161253c5790505b50905060005b848110156127e5573373ffffffffffffffffffffffffffffffffffffffff166006600060018461258d9190613285565b815260200190815260200160002060050160009054906101000a900473ffffffffffffffffffffffffffffffffffffffff1673ffffffffffffffffffffffffffffffffffffffff1614156127d2576000600660006001846125ee9190613285565b8152602001908152602001600020600001549050600060066000838152602001908152602001600020905080604051806101000160405290816000820154815260200160018201548152602001600282015481526020016003820160009054906101000a900473ffffffffffffffffffffffffffffffffffffffff1673ffffffffffffffffffffffffffffffffffffffff1673ffffffffffffffffffffffffffffffffffffffff1681526020016004820160009054906101000a900473ffffffffffffffffffffffffffffffffffffffff1673ffffffffffffffffffffffffffffffffffffffff1673ffffffffffffffffffffffffffffffffffffffff1681526020016005820160009054906101000a900473ffffffffffffffffffffffffffffffffffffffff1673ffffffffffffffffffffffffffffffffffffffff1673ffffffffffffffffffffffffffffffffffffffff1681526020016005820160149054906101000a900460ff161515151581526020016005820160159054906101000a900460ff1615151515815250508486815181106127b5577f4e487b7100000000000000000000000000000000000000000000000000000000600052603260045260246000fd5b60200260200101819052506001856127cd9190613285565b945050505b80806127dd906133b6565b91505061255d565b508094505050505090565b600063bc197c8160e01b905095945050505050565b600063f23a6e6160e01b905095945050505050565b60007f01ffc9a7000000000000000000000000000000000000000000000000000000007bffffffffffffffffffffffffffffffffffffffffffffffffffffffff1916827bffffffffffffffffffffffffffffffffffffffffffffffffffffffff1916149050919050565b6001816000016000828254019250508190555050565b600081600001549050919050565b604051806101000160405280600081526020016000815260200160008152602001600073ffffffffffffffffffffffffffffffffffffffff168152602001600073ffffffffffffffffffffffffffffffffffffffff168152602001600073ffffffffffffffffffffffffffffffffffffffff1681526020016000151581526020016000151581525090565b6000612946612941846131ce565b61319d565b9050808382526020820190508285602086028201111561296557600080fd5b60005b85811015612995578161297b8882612a5b565b845260208401935060208301925050600181019050612968565b5050509392505050565b60006129b26129ad846131fa565b61319d565b9050828152602081018484840111156129ca57600080fd5b6129d58482856133a7565b509392505050565b6000813590506129ec8161345d565b92915050565b600082601f830112612a0357600080fd5b8135612a13848260208601612933565b91505092915050565b600081359050612a2b81613474565b92915050565b600082601f830112612a4257600080fd5b8135612a5284826020860161299f565b91505092915050565b600081359050612a6a8161348b565b92915050565b600080600080600060a08688031215612a8857600080fd5b6000612a96888289016129dd565b9550506020612aa7888289016129dd565b945050604086013567ffffffffffffffff811115612ac457600080fd5b612ad0888289016129f2565b935050606086013567ffffffffffffffff811115612aed57600080fd5b612af9888289016129f2565b925050608086013567ffffffffffffffff811115612b1657600080fd5b612b2288828901612a31565b9150509295509295909350565b600080600080600060a08688031215612b4757600080fd5b6000612b55888289016129dd565b9550506020612b66888289016129dd565b9450506040612b7788828901612a5b565b9350506060612b8888828901612a5b565b925050608086013567ffffffffffffffff811115612ba557600080fd5b612bb188828901612a31565b9150509295509295909350565b60008060408385031215612bd157600080fd5b6000612bdf858286016129dd565b9250506020612bf085828601612a5b565b9150509250929050565b600080600060608486031215612c0f57600080fd5b6000612c1d868287016129dd565b9350506020612c2e86828701612a5b565b9250506040612c3f86828701612a5b565b9150509250925092565b600060208284031215612c5b57600080fd5b6000612c6984828501612a1c565b91505092915050565b600060208284031215612c8457600080fd5b6000612c9284828501612a5b565b91505092915050565b6000612ca78383612ea1565b6101008301905092915050565b612cbd81613321565b82525050565b612ccc8161330f565b82525050565b612cdb8161330f565b82525050565b6000612cec8261323a565b612cf68185613252565b9350612d018361322a565b8060005b83811015612d32578151612d198882612c9b565b9750612d2483613245565b925050600181019050612d05565b5085935050505092915050565b612d4881613333565b82525050565b612d5781613333565b82525050565b612d668161333f565b82525050565b612d7581613395565b82525050565b6000612d88602283613274565b91507f696e73756666696369656e742066756e647320666f72207472616e736163746960008301527f6f6e0000000000000000000000000000000000000000000000000000000000006020830152604082019050919050565b6000612dee602483613274565b91507f4974656d206d757374206861766520612076616c6964206c697374696e67207060008301527f72696365000000000000000000000000000000000000000000000000000000006020830152604082019050919050565b6000612e54600083613263565b9150600082019050919050565b6000612e6e601f83613274565b91507f5265656e7472616e637947756172643a207265656e7472616e742063616c6c006000830152602082019050919050565b61010082016000820151612eb86000850182612fe5565b506020820151612ecb6020850182612fe5565b506040820151612ede6040850182612fe5565b506060820151612ef16060850182612cc3565b506080820151612f046080850182612cb4565b5060a0820151612f1760a0850182612cb4565b5060c0820151612f2a60c0850182612d3f565b5060e0820151612f3d60e0850182612d3f565b50505050565b61010082016000820151612f5a6000850182612fe5565b506020820151612f6d6020850182612fe5565b506040820151612f806040850182612fe5565b506060820151612f936060850182612cc3565b506080820151612fa66080850182612cb4565b5060a0820151612fb960a0850182612cb4565b5060c0820151612fcc60c0850182612d3f565b5060e0820151612fdf60e0850182612d3f565b50505050565b612fee8161338b565b82525050565b612ffd8161338b565b82525050565b60006060820190506130186000830186612cd2565b6130256020830185612cd2565b6130326040830184612ff4565b949350505050565b600060a08201905061304f6000830187612cd2565b61305c6020830186612cd2565b6130696040830185612ff4565b6130766060830184612d6c565b818103608083015261308781612e47565b905095945050505050565b600060208201905081810360008301526130ac8184612ce1565b905092915050565b60006020820190506130c96000830184612d4e565b92915050565b60006020820190506130e46000830184612d5d565b92915050565b6000602082019050818103600083015261310381612d7b565b9050919050565b6000602082019050818103600083015261312381612de1565b9050919050565b6000602082019050818103600083015261314381612e61565b9050919050565b6000610100820190506131606000830184612f43565b92915050565b600060608201905061317b6000830186612ff4565b6131886020830185612cd2565b6131956040830184612cd2565b949350505050565b6000604051905081810181811067ffffffffffffffff821117156131c4576131c361342e565b5b8060405250919050565b600067ffffffffffffffff8211156131e9576131e861342e565b5b602082029050602081019050919050565b600067ffffffffffffffff8211156132155761321461342e565b5b601f19601f8301169050602081019050919050565b6000819050602082019050919050565b600081519050919050565b6000602082019050919050565b600082825260208201905092915050565b600082825260208201905092915050565b600082825260208201905092915050565b60006132908261338b565b915061329b8361338b565b9250827fffffffffffffffffffffffffffffffffffffffffffffffffffffffffffffffff038211156132d0576132cf6133ff565b5b828201905092915050565b60006132e68261338b565b91506132f18361338b565b925082821015613304576133036133ff565b5b828203905092915050565b600061331a8261336b565b9050919050565b600061332c8261336b565b9050919050565b60008115159050919050565b60007fffffffff0000000000000000000000000000000000000000000000000000000082169050919050565b600073ffffffffffffffffffffffffffffffffffffffff82169050919050565b6000819050919050565b60006133a08261338b565b9050919050565b82818337600083830152505050565b60006133c18261338b565b91507fffffffffffffffffffffffffffffffffffffffffffffffffffffffffffffffff8214156133f4576133f36133ff565b5b600182019050919050565b7f4e487b7100000000000000000000000000000000000000000000000000000000600052601160045260246000fd5b7f4e487b7100000000000000000000000000000000000000000000000000000000600052604160045260246000fd5b6134668161330f565b811461347157600080fd5b50565b61347d8161333f565b811461348857600080fd5b50565b6134948161338b565b811461349f57600080fd5b5056fea264697066735822122019a8ba5a95db0b53774db2ecdc2e340c4d4c7dcafd372fc53a42091fd63fa5b364736f6c63430008000033",
  "linkReferences": {},
  "deployedLinkReferences": {}
}