{
  "_format": "hh-sol-artifact-1",
  "contractName": "ERC1155Tradable",
  "sourceName": "contracts/ERC1155Tradable.sol",
  "abi": [
    {
      "inputs": [
        {
          "internalType": "string",
          "name": "_uri",
          "type": "string"
        },
        {
          "internalType": "address",
          "name": "_marketAddress",
          "type": "address"
        }
      ],
      "stateMutability": "nonpayable",
      "type": "constructor"
    },
    {
      "anonymous": false,
      "inputs": [
        {
          "indexed": true,
          "internalType": "address",
          "name": "account",
          "type": "address"
        },
        {
          "indexed": true,
          "internalType": "address",
          "name": "operator",
          "type": "address"
        },
        {
          "indexed": false,
          "internalType": "bool",
          "name": "approved",
          "type": "bool"
        }
      ],
      "name": "ApprovalForAll",
      "type": "event"
    },
    {
      "anonymous": false,
      "inputs": [
        {
          "indexed": false,
          "internalType": "uint256",
          "name": "tokenId",
          "type": "uint256"
        }
      ],
      "name": "CreatedTradableToken",
      "type": "event"
    },
    {
      "anonymous": false,
      "inputs": [
        {
          "indexed": true,
          "internalType": "address",
          "name": "operator",
          "type": "address"
        },
        {
          "indexed": true,
          "internalType": "address",
          "name": "from",
          "type": "address"
        },
        {
          "indexed": true,
          "internalType": "address",
          "name": "to",
          "type": "address"
        },
        {
          "indexed": false,
          "internalType": "uint256[]",
          "name": "ids",
          "type": "uint256[]"
        },
        {
          "indexed": false,
          "internalType": "uint256[]",
          "name": "values",
          "type": "uint256[]"
        }
      ],
      "name": "TransferBatch",
      "type": "event"
    },
    {
      "anonymous": false,
      "inputs": [
        {
          "indexed": true,
          "internalType": "address",
          "name": "operator",
          "type": "address"
        },
        {
          "indexed": true,
          "internalType": "address",
          "name": "from",
          "type": "address"
        },
        {
          "indexed": true,
          "internalType": "address",
          "name": "to",
          "type": "address"
        },
        {
          "indexed": false,
          "internalType": "uint256",
          "name": "id",
          "type": "uint256"
        },
        {
          "indexed": false,
          "internalType": "uint256",
          "name": "value",
          "type": "uint256"
        }
      ],
      "name": "TransferSingle",
      "type": "event"
    },
    {
      "anonymous": false,
      "inputs": [
        {
          "indexed": false,
          "internalType": "string",
          "name": "value",
          "type": "string"
        },
        {
          "indexed": true,
          "internalType": "uint256",
          "name": "id",
          "type": "uint256"
        }
      ],
      "name": "URI",
      "type": "event"
    },
    {
      "inputs": [
        {
          "internalType": "address",
          "name": "account",
          "type": "address"
        },
        {
          "internalType": "uint256",
          "name": "id",
          "type": "uint256"
        }
      ],
      "name": "balanceOf",
      "outputs": [
        {
          "internalType": "uint256",
          "name": "",
          "type": "uint256"
        }
      ],
      "stateMutability": "view",
      "type": "function"
    },
    {
      "inputs": [
        {
          "internalType": "address[]",
          "name": "accounts",
          "type": "address[]"
        },
        {
          "internalType": "uint256[]",
          "name": "ids",
          "type": "uint256[]"
        }
      ],
      "name": "balanceOfBatch",
      "outputs": [
        {
          "internalType": "uint256[]",
          "name": "",
          "type": "uint256[]"
        }
      ],
      "stateMutability": "view",
      "type": "function"
    },
    {
      "inputs": [
        {
          "internalType": "address",
          "name": "_initialOwner",
          "type": "address"
        },
        {
          "internalType": "string",
          "name": "_uri",
          "type": "string"
        }
      ],
      "name": "create",
      "outputs": [
        {
          "internalType": "uint256",
          "name": "",
          "type": "uint256"
        }
      ],
      "stateMutability": "nonpayable",
      "type": "function"
    },
    {
      "inputs": [
        {
          "internalType": "uint256",
          "name": "",
          "type": "uint256"
        }
      ],
      "name": "creators",
      "outputs": [
        {
          "internalType": "address",
          "name": "",
          "type": "address"
        }
      ],
      "stateMutability": "view",
      "type": "function"
    },
    {
      "inputs": [
        {
          "internalType": "uint256",
          "name": "tokenId",
          "type": "uint256"
        }
      ],
      "name": "getItemUriById",
      "outputs": [
        {
          "internalType": "string",
          "name": "",
          "type": "string"
        }
      ],
      "stateMutability": "view",
      "type": "function"
    },
    {
      "inputs": [
        {
          "internalType": "address",
          "name": "account",
          "type": "address"
        },
        {
          "internalType": "address",
          "name": "operator",
          "type": "address"
        }
      ],
      "name": "isApprovedForAll",
      "outputs": [
        {
          "internalType": "bool",
          "name": "",
          "type": "bool"
        }
      ],
      "stateMutability": "view",
      "type": "function"
    },
    {
      "inputs": [
        {
          "internalType": "address",
          "name": "from",
          "type": "address"
        },
        {
          "internalType": "address",
          "name": "to",
          "type": "address"
        },
        {
          "internalType": "uint256[]",
          "name": "ids",
          "type": "uint256[]"
        },
        {
          "internalType": "uint256[]",
          "name": "amounts",
          "type": "uint256[]"
        },
        {
          "internalType": "bytes",
          "name": "data",
          "type": "bytes"
        }
      ],
      "name": "safeBatchTransferFrom",
      "outputs": [],
      "stateMutability": "nonpayable",
      "type": "function"
    },
    {
      "inputs": [
        {
          "internalType": "address",
          "name": "from",
          "type": "address"
        },
        {
          "internalType": "address",
          "name": "to",
          "type": "address"
        },
        {
          "internalType": "uint256",
          "name": "id",
          "type": "uint256"
        },
        {
          "internalType": "uint256",
          "name": "amount",
          "type": "uint256"
        },
        {
          "internalType": "bytes",
          "name": "data",
          "type": "bytes"
        }
      ],
      "name": "safeTransferFrom",
      "outputs": [],
      "stateMutability": "nonpayable",
      "type": "function"
    },
    {
      "inputs": [
        {
          "internalType": "address",
          "name": "operator",
          "type": "address"
        },
        {
          "internalType": "bool",
          "name": "approved",
          "type": "bool"
        }
      ],
      "name": "setApprovalForAll",
      "outputs": [],
      "stateMutability": "nonpayable",
      "type": "function"
    },
    {
      "inputs": [
        {
          "internalType": "bytes4",
          "name": "interfaceId",
          "type": "bytes4"
        }
      ],
      "name": "supportsInterface",
      "outputs": [
        {
          "internalType": "bool",
          "name": "",
          "type": "bool"
        }
      ],
      "stateMutability": "view",
      "type": "function"
    },
    {
      "inputs": [
        {
          "internalType": "uint256",
          "name": "",
          "type": "uint256"
        }
      ],
      "name": "tokenSupply",
      "outputs": [
        {
          "internalType": "uint256",
          "name": "",
          "type": "uint256"
        }
      ],
      "stateMutability": "view",
      "type": "function"
    },
    {
      "inputs": [
        {
          "internalType": "uint256",
          "name": "",
          "type": "uint256"
        }
      ],
      "name": "uri",
      "outputs": [
        {
          "internalType": "string",
          "name": "",
          "type": "string"
        }
      ],
      "stateMutability": "view",
      "type": "function"
    }
  ],
  "bytecode": "0x60806040523480156200001157600080fd5b506040516200308c3803806200308c8339818101604052810190620000379190620001e8565b8162000049816200009360201b60201c565b5080600760006101000a81548173ffffffffffffffffffffffffffffffffffffffff021916908373ffffffffffffffffffffffffffffffffffffffff1602179055505050620003c1565b8060029080519060200190620000ab929190620000af565b5050565b828054620000bd9062000313565b90600052602060002090601f016020900481019282620000e157600085556200012d565b82601f10620000fc57805160ff19168380011785556200012d565b828001600101855582156200012d579182015b828111156200012c5782518255916020019190600101906200010f565b5b5090506200013c919062000140565b5090565b5b808211156200015b57600081600090555060010162000141565b5090565b600062000176620001708462000276565b62000242565b9050828152602081018484840111156200018f57600080fd5b6200019c848285620002dd565b509392505050565b600081519050620001b581620003a7565b92915050565b600082601f830112620001cd57600080fd5b8151620001df8482602086016200015f565b91505092915050565b60008060408385031215620001fc57600080fd5b600083015167ffffffffffffffff8111156200021757600080fd5b6200022585828601620001bb565b92505060206200023885828601620001a4565b9150509250929050565b6000604051905081810181811067ffffffffffffffff821117156200026c576200026b62000378565b5b8060405250919050565b600067ffffffffffffffff82111562000294576200029362000378565b5b601f19601f8301169050602081019050919050565b6000620002b682620002bd565b9050919050565b600073ffffffffffffffffffffffffffffffffffffffff82169050919050565b60005b83811015620002fd578082015181840152602081019050620002e0565b838111156200030d576000848401525b50505050565b600060028204905060018216806200032c57607f821691505b6020821081141562000343576200034262000349565b5b50919050565b7f4e487b7100000000000000000000000000000000000000000000000000000000600052602260045260246000fd5b7f4e487b7100000000000000000000000000000000000000000000000000000000600052604160045260246000fd5b620003b281620002a9565b8114620003be57600080fd5b50565b612cbb80620003d16000396000f3fe608060405234801561001057600080fd5b50600436106100b35760003560e01c80634e1273f4116100715780634e1273f4146101c4578063a15ab08d146101f4578063a22cb46514610224578063cd53d08e14610240578063e985e9c514610270578063f242432a146102a0576100b3565b8062fdd58e146100b857806301ffc9a7146100e85780630e89341c146101185780632693ebf2146101485780632cf9a4c0146101785780632eb2c2d6146101a8575b600080fd5b6100d260048036038101906100cd9190611e27565b6102bc565b6040516100df91906127a3565b60405180910390f35b61010260048036038101906100fd9190611ecf565b610385565b60405161010f9190612606565b60405180910390f35b610132600480360381019061012d9190611f21565b610467565b60405161013f9190612621565b60405180910390f35b610162600480360381019061015d9190611f21565b6104fb565b60405161016f91906127a3565b60405180910390f35b610192600480360381019061018d9190611f21565b610513565b60405161019f9190612621565b60405180910390f35b6101c260048036038101906101bd9190611c49565b6105b8565b005b6101de60048036038101906101d99190611e63565b610659565b6040516101eb91906125ad565b60405180910390f35b61020e60048036038101906102099190611dd3565b61080a565b60405161021b91906127a3565b60405180910390f35b61023e60048036038101906102399190611d97565b61098b565b005b61025a60048036038101906102559190611f21565b6109a1565b60405161026791906124d0565b60405180910390f35b61028a60048036038101906102859190611c0d565b6109d4565b6040516102979190612606565b60405180910390f35b6102ba60048036038101906102b59190611d08565b610a68565b005b60008073ffffffffffffffffffffffffffffffffffffffff168373ffffffffffffffffffffffffffffffffffffffff16141561032d576040517f08c379a000000000000000000000000000000000000000000000000000000000815260040161032490612683565b60405180910390fd5b60008083815260200190815260200160002060008473ffffffffffffffffffffffffffffffffffffffff1673ffffffffffffffffffffffffffffffffffffffff16815260200190815260200160002054905092915050565b60007fd9b67a26000000000000000000000000000000000000000000000000000000007bffffffffffffffffffffffffffffffffffffffffffffffffffffffff1916827bffffffffffffffffffffffffffffffffffffffffffffffffffffffff1916148061045057507f0e89341c000000000000000000000000000000000000000000000000000000007bffffffffffffffffffffffffffffffffffffffffffffffffffffffff1916827bffffffffffffffffffffffffffffffffffffffffffffffffffffffff1916145b80610460575061045f82610b09565b5b9050919050565b60606002805461047690612a4d565b80601f01602080910402602001604051908101604052809291908181526020018280546104a290612a4d565b80156104ef5780601f106104c4576101008083540402835291602001916104ef565b820191906000526020600020905b8154815290600101906020018083116104d257829003601f168201915b50505050509050919050565b60056020528060005260406000206000915090505481565b606060066000838152602001908152602001600020805461053390612a4d565b80601f016020809104026020016040519081016040528092919081815260200182805461055f90612a4d565b80156105ac5780601f10610581576101008083540402835291602001916105ac565b820191906000526020600020905b81548152906001019060200180831161058f57829003601f168201915b50505050509050919050565b6105c0610b73565b73ffffffffffffffffffffffffffffffffffffffff168573ffffffffffffffffffffffffffffffffffffffff161480610606575061060585610600610b73565b6109d4565b5b610645576040517f08c379a000000000000000000000000000000000000000000000000000000000815260040161063c906126e3565b60405180910390fd5b6106528585858585610b7b565b5050505050565b6060815183511461069f576040517f08c379a000000000000000000000000000000000000000000000000000000000815260040161069690612743565b60405180910390fd5b6000835167ffffffffffffffff8111156106e2577f4e487b7100000000000000000000000000000000000000000000000000000000600052604160045260246000fd5b6040519080825280602002602001820160405280156107105781602001602082028036833780820191505090505b50905060005b84518110156107ff576107a985828151811061075b577f4e487b7100000000000000000000000000000000000000000000000000000000600052603260045260246000fd5b602002602001015185838151811061079c577f4e487b7100000000000000000000000000000000000000000000000000000000600052603260045260246000fd5b60200260200101516102bc565b8282815181106107e2577f4e487b7100000000000000000000000000000000000000000000000000000000600052603260045260246000fd5b602002602001018181525050806107f890612a7f565b9050610716565b508091505092915050565b60006108166003610edb565b60006108226003610ef1565b905061082c610b73565b6004600083815260200190815260200160002060006101000a81548173ffffffffffffffffffffffffffffffffffffffff021916908373ffffffffffffffffffffffffffffffffffffffff1602179055506000835111156108e857826006600083815260200190815260200160002090805190602001906108ae929190611905565b50807f6bb7ff708619ba0610cba295a58592e0451dee2622938c8755667688daf3529b846040516108df9190612621565b60405180910390a25b6109048482600160405180602001604052806000815250610eff565b6001600560008381526020019081526020016000208190555061094a600760009054906101000a900473ffffffffffffffffffffffffffffffffffffffff16600161098b565b7fa6910dc9e51e4c28ef80d2fd50bc45be0ada663451a4544b96d6a7608712147c8160405161097991906127a3565b60405180910390a18091505092915050565b61099d610996610b73565b8383611095565b5050565b60046020528060005260406000206000915054906101000a900473ffffffffffffffffffffffffffffffffffffffff1681565b6000600160008473ffffffffffffffffffffffffffffffffffffffff1673ffffffffffffffffffffffffffffffffffffffff16815260200190815260200160002060008373ffffffffffffffffffffffffffffffffffffffff1673ffffffffffffffffffffffffffffffffffffffff16815260200190815260200160002060009054906101000a900460ff16905092915050565b610a70610b73565b73ffffffffffffffffffffffffffffffffffffffff168573ffffffffffffffffffffffffffffffffffffffff161480610ab65750610ab585610ab0610b73565b6109d4565b5b610af5576040517f08c379a0000000000000000000000000000000000000000000000000000000008152600401610aec906126a3565b60405180910390fd5b610b028585858585611202565b5050505050565b60007f01ffc9a7000000000000000000000000000000000000000000000000000000007bffffffffffffffffffffffffffffffffffffffffffffffffffffffff1916827bffffffffffffffffffffffffffffffffffffffffffffffffffffffff1916149050919050565b600033905090565b8151835114610bbf576040517f08c379a0000000000000000000000000000000000000000000000000000000008152600401610bb690612763565b60405180910390fd5b600073ffffffffffffffffffffffffffffffffffffffff168473ffffffffffffffffffffffffffffffffffffffff161415610c2f576040517f08c379a0000000000000000000000000000000000000000000000000000000008152600401610c26906126c3565b60405180910390fd5b6000610c39610b73565b9050610c49818787878787611484565b60005b8451811015610e46576000858281518110610c90577f4e487b7100000000000000000000000000000000000000000000000000000000600052603260045260246000fd5b602002602001015190506000858381518110610cd5577f4e487b7100000000000000000000000000000000000000000000000000000000600052603260045260246000fd5b60200260200101519050600080600084815260200190815260200160002060008b73ffffffffffffffffffffffffffffffffffffffff1673ffffffffffffffffffffffffffffffffffffffff16815260200190815260200160002054905081811015610d76576040517f08c379a0000000000000000000000000000000000000000000000000000000008152600401610d6d90612703565b60405180910390fd5b81810360008085815260200190815260200160002060008c73ffffffffffffffffffffffffffffffffffffffff1673ffffffffffffffffffffffffffffffffffffffff168152602001908152602001600020819055508160008085815260200190815260200160002060008b73ffffffffffffffffffffffffffffffffffffffff1673ffffffffffffffffffffffffffffffffffffffff1681526020019081526020016000206000828254610e2b9190612941565b9250508190555050505080610e3f90612a7f565b9050610c4c565b508473ffffffffffffffffffffffffffffffffffffffff168673ffffffffffffffffffffffffffffffffffffffff168273ffffffffffffffffffffffffffffffffffffffff167f4a39dc06d4c0dbc64b70af90fd698a233a518aa5d07e595d983b8c0526c8f7fb8787604051610ebd9291906125cf565b60405180910390a4610ed381878787878761148c565b505050505050565b6001816000016000828254019250508190555050565b600081600001549050919050565b600073ffffffffffffffffffffffffffffffffffffffff168473ffffffffffffffffffffffffffffffffffffffff161415610f6f576040517f08c379a0000000000000000000000000000000000000000000000000000000008152600401610f6690612783565b60405180910390fd5b6000610f79610b73565b9050610f9a81600087610f8b8861165c565b610f948861165c565b87611484565b8260008086815260200190815260200160002060008773ffffffffffffffffffffffffffffffffffffffff1673ffffffffffffffffffffffffffffffffffffffff1681526020019081526020016000206000828254610ff99190612941565b925050819055508473ffffffffffffffffffffffffffffffffffffffff16600073ffffffffffffffffffffffffffffffffffffffff168273ffffffffffffffffffffffffffffffffffffffff167fc3d58168c5ae7397731d063d5bbf3d657854427343f4c083240f7aacaa2d0f6287876040516110779291906127be565b60405180910390a461108e81600087878787611722565b5050505050565b8173ffffffffffffffffffffffffffffffffffffffff168373ffffffffffffffffffffffffffffffffffffffff161415611104576040517f08c379a00000000000000000000000000000000000000000000000000000000081526004016110fb90612723565b60405180910390fd5b80600160008573ffffffffffffffffffffffffffffffffffffffff1673ffffffffffffffffffffffffffffffffffffffff16815260200190815260200160002060008473ffffffffffffffffffffffffffffffffffffffff1673ffffffffffffffffffffffffffffffffffffffff16815260200190815260200160002060006101000a81548160ff0219169083151502179055508173ffffffffffffffffffffffffffffffffffffffff168373ffffffffffffffffffffffffffffffffffffffff167f17307eab39ab6107e8899845ad3d59bd9653f200f220920489ca2b5937696c31836040516111f59190612606565b60405180910390a3505050565b600073ffffffffffffffffffffffffffffffffffffffff168473ffffffffffffffffffffffffffffffffffffffff161415611272576040517f08c379a0000000000000000000000000000000000000000000000000000000008152600401611269906126c3565b60405180910390fd5b600061127c610b73565b905061129c81878761128d8861165c565b6112968861165c565b87611484565b600080600086815260200190815260200160002060008873ffffffffffffffffffffffffffffffffffffffff1673ffffffffffffffffffffffffffffffffffffffff16815260200190815260200160002054905083811015611333576040517f08c379a000000000000000000000000000000000000000000000000000000000815260040161132a90612703565b60405180910390fd5b83810360008087815260200190815260200160002060008973ffffffffffffffffffffffffffffffffffffffff1673ffffffffffffffffffffffffffffffffffffffff168152602001908152602001600020819055508360008087815260200190815260200160002060008873ffffffffffffffffffffffffffffffffffffffff1673ffffffffffffffffffffffffffffffffffffffff16815260200190815260200160002060008282546113e89190612941565b925050819055508573ffffffffffffffffffffffffffffffffffffffff168773ffffffffffffffffffffffffffffffffffffffff168373ffffffffffffffffffffffffffffffffffffffff167fc3d58168c5ae7397731d063d5bbf3d657854427343f4c083240f7aacaa2d0f6288886040516114659291906127be565b60405180910390a461147b828888888888611722565b50505050505050565b505050505050565b6114ab8473ffffffffffffffffffffffffffffffffffffffff166118f2565b15611654578373ffffffffffffffffffffffffffffffffffffffff1663bc197c8187878686866040518663ffffffff1660e01b81526004016114f19594939291906124eb565b602060405180830381600087803b15801561150b57600080fd5b505af192505050801561153c57506040513d601f19601f820116820180604052508101906115399190611ef8565b60015b6115cb57611548612b73565b806115535750611590565b806040517f08c379a00000000000000000000000000000000000000000000000000000000081526004016115879190612621565b60405180910390fd5b6040517f08c379a00000000000000000000000000000000000000000000000000000000081526004016115c290612643565b60405180910390fd5b63bc197c8160e01b7bffffffffffffffffffffffffffffffffffffffffffffffffffffffff1916817bffffffffffffffffffffffffffffffffffffffffffffffffffffffff191614611652576040517f08c379a000000000000000000000000000000000000000000000000000000000815260040161164990612663565b60405180910390fd5b505b505050505050565b60606000600167ffffffffffffffff8111156116a1577f4e487b7100000000000000000000000000000000000000000000000000000000600052604160045260246000fd5b6040519080825280602002602001820160405280156116cf5781602001602082028036833780820191505090505b509050828160008151811061170d577f4e487b7100000000000000000000000000000000000000000000000000000000600052603260045260246000fd5b60200260200101818152505080915050919050565b6117418473ffffffffffffffffffffffffffffffffffffffff166118f2565b156118ea578373ffffffffffffffffffffffffffffffffffffffff1663f23a6e6187878686866040518663ffffffff1660e01b8152600401611787959493929190612553565b602060405180830381600087803b1580156117a157600080fd5b505af19250505080156117d257506040513d601f19601f820116820180604052508101906117cf9190611ef8565b60015b611861576117de612b73565b806117e95750611826565b806040517f08c379a000000000000000000000000000000000000000000000000000000000815260040161181d9190612621565b60405180910390fd5b6040517f08c379a000000000000000000000000000000000000000000000000000000000815260040161185890612643565b60405180910390fd5b63f23a6e6160e01b7bffffffffffffffffffffffffffffffffffffffffffffffffffffffff1916817bffffffffffffffffffffffffffffffffffffffffffffffffffffffff1916146118e8576040517f08c379a00000000000000000000000000000000000000000000000000000000081526004016118df90612663565b60405180910390fd5b505b505050505050565b600080823b905060008111915050919050565b82805461191190612a4d565b90600052602060002090601f016020900481019282611933576000855561197a565b82601f1061194c57805160ff191683800117855561197a565b8280016001018555821561197a579182015b8281111561197957825182559160200191906001019061195e565b5b509050611987919061198b565b5090565b5b808211156119a457600081600090555060010161198c565b5090565b60006119bb6119b684612818565b6127e7565b905080838252602082019050828560208602820111156119da57600080fd5b60005b85811015611a0a57816119f08882611afc565b8452602084019350602083019250506001810190506119dd565b5050509392505050565b6000611a27611a2284612844565b6127e7565b90508083825260208201905082856020860282011115611a4657600080fd5b60005b85811015611a765781611a5c8882611bf8565b845260208401935060208301925050600181019050611a49565b5050509392505050565b6000611a93611a8e84612870565b6127e7565b905082815260208101848484011115611aab57600080fd5b611ab6848285612a0b565b509392505050565b6000611ad1611acc846128a0565b6127e7565b905082815260208101848484011115611ae957600080fd5b611af4848285612a0b565b509392505050565b600081359050611b0b81612c29565b92915050565b600082601f830112611b2257600080fd5b8135611b328482602086016119a8565b91505092915050565b600082601f830112611b4c57600080fd5b8135611b5c848260208601611a14565b91505092915050565b600081359050611b7481612c40565b92915050565b600081359050611b8981612c57565b92915050565b600081519050611b9e81612c57565b92915050565b600082601f830112611bb557600080fd5b8135611bc5848260208601611a80565b91505092915050565b600082601f830112611bdf57600080fd5b8135611bef848260208601611abe565b91505092915050565b600081359050611c0781612c6e565b92915050565b60008060408385031215611c2057600080fd5b6000611c2e85828601611afc565b9250506020611c3f85828601611afc565b9150509250929050565b600080600080600060a08688031215611c6157600080fd5b6000611c6f88828901611afc565b9550506020611c8088828901611afc565b945050604086013567ffffffffffffffff811115611c9d57600080fd5b611ca988828901611b3b565b935050606086013567ffffffffffffffff811115611cc657600080fd5b611cd288828901611b3b565b925050608086013567ffffffffffffffff811115611cef57600080fd5b611cfb88828901611ba4565b9150509295509295909350565b600080600080600060a08688031215611d2057600080fd5b6000611d2e88828901611afc565b9550506020611d3f88828901611afc565b9450506040611d5088828901611bf8565b9350506060611d6188828901611bf8565b925050608086013567ffffffffffffffff811115611d7e57600080fd5b611d8a88828901611ba4565b9150509295509295909350565b60008060408385031215611daa57600080fd5b6000611db885828601611afc565b9250506020611dc985828601611b65565b9150509250929050565b60008060408385031215611de657600080fd5b6000611df485828601611afc565b925050602083013567ffffffffffffffff811115611e1157600080fd5b611e1d85828601611bce565b9150509250929050565b60008060408385031215611e3a57600080fd5b6000611e4885828601611afc565b9250506020611e5985828601611bf8565b9150509250929050565b60008060408385031215611e7657600080fd5b600083013567ffffffffffffffff811115611e9057600080fd5b611e9c85828601611b11565b925050602083013567ffffffffffffffff811115611eb957600080fd5b611ec585828601611b3b565b9150509250929050565b600060208284031215611ee157600080fd5b6000611eef84828501611b7a565b91505092915050565b600060208284031215611f0a57600080fd5b6000611f1884828501611b8f565b91505092915050565b600060208284031215611f3357600080fd5b6000611f4184828501611bf8565b91505092915050565b6000611f5683836124b2565b60208301905092915050565b611f6b81612997565b82525050565b6000611f7c826128e0565b611f86818561290e565b9350611f91836128d0565b8060005b83811015611fc2578151611fa98882611f4a565b9750611fb483612901565b925050600181019050611f95565b5085935050505092915050565b611fd8816129a9565b82525050565b6000611fe9826128eb565b611ff3818561291f565b9350612003818560208601612a1a565b61200c81612b55565b840191505092915050565b6000612022826128f6565b61202c8185612930565b935061203c818560208601612a1a565b61204581612b55565b840191505092915050565b600061205d603483612930565b91507f455243313135353a207472616e7366657220746f206e6f6e204552433131353560008301527f526563656976657220696d706c656d656e7465720000000000000000000000006020830152604082019050919050565b60006120c3602883612930565b91507f455243313135353a204552433131353552656365697665722072656a6563746560008301527f6420746f6b656e730000000000000000000000000000000000000000000000006020830152604082019050919050565b6000612129602b83612930565b91507f455243313135353a2062616c616e636520717565727920666f7220746865207a60008301527f65726f20616464726573730000000000000000000000000000000000000000006020830152604082019050919050565b600061218f602983612930565b91507f455243313135353a2063616c6c6572206973206e6f74206f776e6572206e6f7260008301527f20617070726f76656400000000000000000000000000000000000000000000006020830152604082019050919050565b60006121f5602583612930565b91507f455243313135353a207472616e7366657220746f20746865207a65726f20616460008301527f64726573730000000000000000000000000000000000000000000000000000006020830152604082019050919050565b600061225b603283612930565b91507f455243313135353a207472616e736665722063616c6c6572206973206e6f742060008301527f6f776e6572206e6f7220617070726f76656400000000000000000000000000006020830152604082019050919050565b60006122c1602a83612930565b91507f455243313135353a20696e73756666696369656e742062616c616e636520666f60008301527f72207472616e73666572000000000000000000000000000000000000000000006020830152604082019050919050565b6000612327602983612930565b91507f455243313135353a2073657474696e6720617070726f76616c2073746174757360008301527f20666f722073656c6600000000000000000000000000000000000000000000006020830152604082019050919050565b600061238d602983612930565b91507f455243313135353a206163636f756e747320616e6420696473206c656e67746860008301527f206d69736d6174636800000000000000000000000000000000000000000000006020830152604082019050919050565b60006123f3602883612930565b91507f455243313135353a2069647320616e6420616d6f756e7473206c656e6774682060008301527f6d69736d617463680000000000000000000000000000000000000000000000006020830152604082019050919050565b6000612459602183612930565b91507f455243313135353a206d696e7420746f20746865207a65726f2061646472657360008301527f73000000000000000000000000000000000000000000000000000000000000006020830152604082019050919050565b6124bb81612a01565b82525050565b6124ca81612a01565b82525050565b60006020820190506124e56000830184611f62565b92915050565b600060a0820190506125006000830188611f62565b61250d6020830187611f62565b818103604083015261251f8186611f71565b905081810360608301526125338185611f71565b905081810360808301526125478184611fde565b90509695505050505050565b600060a0820190506125686000830188611f62565b6125756020830187611f62565b61258260408301866124c1565b61258f60608301856124c1565b81810360808301526125a18184611fde565b90509695505050505050565b600060208201905081810360008301526125c78184611f71565b905092915050565b600060408201905081810360008301526125e98185611f71565b905081810360208301526125fd8184611f71565b90509392505050565b600060208201905061261b6000830184611fcf565b92915050565b6000602082019050818103600083015261263b8184612017565b905092915050565b6000602082019050818103600083015261265c81612050565b9050919050565b6000602082019050818103600083015261267c816120b6565b9050919050565b6000602082019050818103600083015261269c8161211c565b9050919050565b600060208201905081810360008301526126bc81612182565b9050919050565b600060208201905081810360008301526126dc816121e8565b9050919050565b600060208201905081810360008301526126fc8161224e565b9050919050565b6000602082019050818103600083015261271c816122b4565b9050919050565b6000602082019050818103600083015261273c8161231a565b9050919050565b6000602082019050818103600083015261275c81612380565b9050919050565b6000602082019050818103600083015261277c816123e6565b9050919050565b6000602082019050818103600083015261279c8161244c565b9050919050565b60006020820190506127b860008301846124c1565b92915050565b60006040820190506127d360008301856124c1565b6127e060208301846124c1565b9392505050565b6000604051905081810181811067ffffffffffffffff8211171561280e5761280d612b26565b5b8060405250919050565b600067ffffffffffffffff82111561283357612832612b26565b5b602082029050602081019050919050565b600067ffffffffffffffff82111561285f5761285e612b26565b5b602082029050602081019050919050565b600067ffffffffffffffff82111561288b5761288a612b26565b5b601f19601f8301169050602081019050919050565b600067ffffffffffffffff8211156128bb576128ba612b26565b5b601f19601f8301169050602081019050919050565b6000819050602082019050919050565b600081519050919050565b600081519050919050565b600081519050919050565b6000602082019050919050565b600082825260208201905092915050565b600082825260208201905092915050565b600082825260208201905092915050565b600061294c82612a01565b915061295783612a01565b9250827fffffffffffffffffffffffffffffffffffffffffffffffffffffffffffffffff0382111561298c5761298b612ac8565b5b828201905092915050565b60006129a2826129e1565b9050919050565b60008115159050919050565b60007fffffffff0000000000000000000000000000000000000000000000000000000082169050919050565b600073ffffffffffffffffffffffffffffffffffffffff82169050919050565b6000819050919050565b82818337600083830152505050565b60005b83811015612a38578082015181840152602081019050612a1d565b83811115612a47576000848401525b50505050565b60006002820490506001821680612a6557607f821691505b60208210811415612a7957612a78612af7565b5b50919050565b6000612a8a82612a01565b91507fffffffffffffffffffffffffffffffffffffffffffffffffffffffffffffffff821415612abd57612abc612ac8565b5b600182019050919050565b7f4e487b7100000000000000000000000000000000000000000000000000000000600052601160045260246000fd5b7f4e487b7100000000000000000000000000000000000000000000000000000000600052602260045260246000fd5b7f4e487b7100000000000000000000000000000000000000000000000000000000600052604160045260246000fd5b6000601f19601f8301169050919050565b60008160e01c9050919050565b600060443d1015612b8357612c26565b60046000803e612b94600051612b66565b6308c379a08114612ba55750612c26565b60405160043d036004823e80513d602482011167ffffffffffffffff82111715612bd157505050612c26565b808201805167ffffffffffffffff811115612bf0575050505050612c26565b8060208301013d8501811115612c0b57505050505050612c26565b612c1482612b55565b60208401016040528296505050505050505b90565b612c3281612997565b8114612c3d57600080fd5b50565b612c49816129a9565b8114612c5457600080fd5b50565b612c60816129b5565b8114612c6b57600080fd5b50565b612c7781612a01565b8114612c8257600080fd5b5056fea26469706673582212205bf17fcdc92780b7f6de4c3e669f20dc0e8a0bcf36e2af5ec696bc9a735aa4f364736f6c63430008000033",
  "linkReferences": {},
  "deployedLinkReferences": {}
}