{
  "_format": "hh-sol-artifact-1",
  "contractName": "ERC721Tradable",
  "sourceName": "contracts/ERC721Tradable.sol",
  "abi": [
    {
      "inputs": [
        {
          "internalType": "address",
          "name": "_marketAddress",
          "type": "address"
        }
      ],
      "stateMutability": "nonpayable",
      "type": "constructor"
    },
    {
      "anonymous": false,
      "inputs": [
        {
          "indexed": true,
          "internalType": "address",
          "name": "owner",
          "type": "address"
        },
        {
          "indexed": true,
          "internalType": "address",
          "name": "approved",
          "type": "address"
        },
        {
          "indexed": true,
          "internalType": "uint256",
          "name": "tokenId",
          "type": "uint256"
        }
      ],
      "name": "Approval",
      "type": "event"
    },
    {
      "anonymous": false,
      "inputs": [
        {
          "indexed": true,
          "internalType": "address",
          "name": "owner",
          "type": "address"
        },
        {
          "indexed": true,
          "internalType": "address",
          "name": "operator",
          "type": "address"
        },
        {
          "indexed": false,
          "internalType": "bool",
          "name": "approved",
          "type": "bool"
        }
      ],
      "name": "ApprovalForAll",
      "type": "event"
    },
    {
      "anonymous": false,
      "inputs": [
        {
          "indexed": true,
          "internalType": "address",
          "name": "from",
          "type": "address"
        },
        {
          "indexed": true,
          "internalType": "address",
          "name": "to",
          "type": "address"
        },
        {
          "indexed": true,
          "internalType": "uint256",
          "name": "tokenId",
          "type": "uint256"
        }
      ],
      "name": "Transfer",
      "type": "event"
    },
    {
      "inputs": [
        {
          "internalType": "address",
          "name": "to",
          "type": "address"
        },
        {
          "internalType": "uint256",
          "name": "tokenId",
          "type": "uint256"
        }
      ],
      "name": "approve",
      "outputs": [],
      "stateMutability": "nonpayable",
      "type": "function"
    },
    {
      "inputs": [
        {
          "internalType": "address",
          "name": "owner",
          "type": "address"
        }
      ],
      "name": "balanceOf",
      "outputs": [
        {
          "internalType": "uint256",
          "name": "",
          "type": "uint256"
        }
      ],
      "stateMutability": "view",
      "type": "function"
    },
    {
      "inputs": [
        {
          "internalType": "string",
          "name": "tokenURI",
          "type": "string"
        }
      ],
      "name": "createToken",
      "outputs": [
        {
          "internalType": "uint256",
          "name": "",
          "type": "uint256"
        }
      ],
      "stateMutability": "nonpayable",
      "type": "function"
    },
    {
      "inputs": [
        {
          "internalType": "uint256",
          "name": "tokenId",
          "type": "uint256"
        }
      ],
      "name": "getApproved",
      "outputs": [
        {
          "internalType": "address",
          "name": "",
          "type": "address"
        }
      ],
      "stateMutability": "view",
      "type": "function"
    },
    {
      "inputs": [
        {
          "internalType": "address",
          "name": "owner",
          "type": "address"
        },
        {
          "internalType": "address",
          "name": "operator",
          "type": "address"
        }
      ],
      "name": "isApprovedForAll",
      "outputs": [
        {
          "internalType": "bool",
          "name": "",
          "type": "bool"
        }
      ],
      "stateMutability": "view",
      "type": "function"
    },
    {
      "inputs": [],
      "name": "name",
      "outputs": [
        {
          "internalType": "string",
          "name": "",
          "type": "string"
        }
      ],
      "stateMutability": "view",
      "type": "function"
    },
    {
      "inputs": [
        {
          "internalType": "uint256",
          "name": "tokenId",
          "type": "uint256"
        }
      ],
      "name": "ownerOf",
      "outputs": [
        {
          "internalType": "address",
          "name": "",
          "type": "address"
        }
      ],
      "stateMutability": "view",
      "type": "function"
    },
    {
      "inputs": [
        {
          "internalType": "address",
          "name": "from",
          "type": "address"
        },
        {
          "internalType": "address",
          "name": "to",
          "type": "address"
        },
        {
          "internalType": "uint256",
          "name": "tokenId",
          "type": "uint256"
        }
      ],
      "name": "safeTransferFrom",
      "outputs": [],
      "stateMutability": "nonpayable",
      "type": "function"
    },
    {
      "inputs": [
        {
          "internalType": "address",
          "name": "from",
          "type": "address"
        },
        {
          "internalType": "address",
          "name": "to",
          "type": "address"
        },
        {
          "internalType": "uint256",
          "name": "tokenId",
          "type": "uint256"
        },
        {
          "internalType": "bytes",
          "name": "_data",
          "type": "bytes"
        }
      ],
      "name": "safeTransferFrom",
      "outputs": [],
      "stateMutability": "nonpayable",
      "type": "function"
    },
    {
      "inputs": [
        {
          "internalType": "address",
          "name": "operator",
          "type": "address"
        },
        {
          "internalType": "bool",
          "name": "approved",
          "type": "bool"
        }
      ],
      "name": "setApprovalForAll",
      "outputs": [],
      "stateMutability": "nonpayable",
      "type": "function"
    },
    {
      "inputs": [
        {
          "internalType": "bytes4",
          "name": "interfaceId",
          "type": "bytes4"
        }
      ],
      "name": "supportsInterface",
      "outputs": [
        {
          "internalType": "bool",
          "name": "",
          "type": "bool"
        }
      ],
      "stateMutability": "view",
      "type": "function"
    },
    {
      "inputs": [],
      "name": "symbol",
      "outputs": [
        {
          "internalType": "string",
          "name": "",
          "type": "string"
        }
      ],
      "stateMutability": "view",
      "type": "function"
    },
    {
      "inputs": [
        {
          "internalType": "uint256",
          "name": "tokenId",
          "type": "uint256"
        }
      ],
      "name": "tokenURI",
      "outputs": [
        {
          "internalType": "string",
          "name": "",
          "type": "string"
        }
      ],
      "stateMutability": "view",
      "type": "function"
    },
    {
      "inputs": [
        {
          "internalType": "address",
          "name": "from",
          "type": "address"
        },
        {
          "internalType": "address",
          "name": "to",
          "type": "address"
        },
        {
          "internalType": "uint256",
          "name": "tokenId",
          "type": "uint256"
        }
      ],
      "name": "transferFrom",
      "outputs": [],
      "stateMutability": "nonpayable",
      "type": "function"
    }
  ],
  "bytecode": "0x60806040523480156200001157600080fd5b5060405162002dee38038062002dee8339818101604052810190620000379190620001e6565b6040518060400160405280601081526020017f4f63746f506c61636520546f6b656e73000000000000000000000000000000008152506040518060400160405280600481526020017f4f435450000000000000000000000000000000000000000000000000000000008152508160009080519060200190620000bb9291906200011f565b508060019080519060200190620000d49291906200011f565b50505080600860006101000a81548173ffffffffffffffffffffffffffffffffffffffff021916908373ffffffffffffffffffffffffffffffffffffffff16021790555050620002c5565b8280546200012d9062000246565b90600052602060002090601f0160209004810192826200015157600085556200019d565b82601f106200016c57805160ff19168380011785556200019d565b828001600101855582156200019d579182015b828111156200019c5782518255916020019190600101906200017f565b5b509050620001ac9190620001b0565b5090565b5b80821115620001cb576000816000905550600101620001b1565b5090565b600081519050620001e081620002ab565b92915050565b600060208284031215620001f957600080fd5b60006200020984828501620001cf565b91505092915050565b60006200021f8262000226565b9050919050565b600073ffffffffffffffffffffffffffffffffffffffff82169050919050565b600060028204905060018216806200025f57607f821691505b602082108114156200027657620002756200027c565b5b50919050565b7f4e487b7100000000000000000000000000000000000000000000000000000000600052602260045260246000fd5b620002b68162000212565b8114620002c257600080fd5b50565b612b1980620002d56000396000f3fe608060405234801561001057600080fd5b50600436106100ea5760003560e01c80636352211e1161008c578063a22cb46511610066578063a22cb4651461026f578063b88d4fde1461028b578063c87b56dd146102a7578063e985e9c5146102d7576100ea565b80636352211e146101f157806370a082311461022157806395d89b4114610251576100ea565b8063095ea7b3116100c8578063095ea7b31461016d57806323b872dd1461018957806342842e0e146101a557806345576f94146101c1576100ea565b806301ffc9a7146100ef57806306fdde031461011f578063081812fc1461013d575b600080fd5b61010960048036038101906101049190611c6c565b610307565b6040516101169190612471565b60405180910390f35b6101276103e9565b604051610134919061248c565b60405180910390f35b61015760048036038101906101529190611cff565b61047b565b604051610164919061240a565b60405180910390f35b61018760048036038101906101829190611c30565b610500565b005b6101a3600480360381019061019e9190611b2a565b610618565b005b6101bf60048036038101906101ba9190611b2a565b610678565b005b6101db60048036038101906101d69190611cbe565b610698565b6040516101e891906126ae565b60405180910390f35b61020b60048036038101906102069190611cff565b6106fc565b604051610218919061240a565b60405180910390f35b61023b60048036038101906102369190611ac5565b6107ae565b60405161024891906126ae565b60405180910390f35b610259610866565b604051610266919061248c565b60405180910390f35b61028960048036038101906102849190611bf4565b6108f8565b005b6102a560048036038101906102a09190611b79565b61090e565b005b6102c160048036038101906102bc9190611cff565b610970565b6040516102ce919061248c565b60405180910390f35b6102f160048036038101906102ec9190611aee565b610ac2565b6040516102fe9190612471565b60405180910390f35b60007f80ac58cd000000000000000000000000000000000000000000000000000000007bffffffffffffffffffffffffffffffffffffffffffffffffffffffff1916827bffffffffffffffffffffffffffffffffffffffffffffffffffffffff191614806103d257507f5b5e139f000000000000000000000000000000000000000000000000000000007bffffffffffffffffffffffffffffffffffffffffffffffffffffffff1916827bffffffffffffffffffffffffffffffffffffffffffffffffffffffff1916145b806103e257506103e182610b56565b5b9050919050565b6060600080546103f89061290e565b80601f01602080910402602001604051908101604052809291908181526020018280546104249061290e565b80156104715780601f1061044657610100808354040283529160200191610471565b820191906000526020600020905b81548152906001019060200180831161045457829003601f168201915b5050505050905090565b600061048682610bc0565b6104c5576040517f08c379a00000000000000000000000000000000000000000000000000000000081526004016104bc9061260e565b60405180910390fd5b6004600083815260200190815260200160002060009054906101000a900473ffffffffffffffffffffffffffffffffffffffff169050919050565b600061050b826106fc565b90508073ffffffffffffffffffffffffffffffffffffffff168373ffffffffffffffffffffffffffffffffffffffff16141561057c576040517f08c379a00000000000000000000000000000000000000000000000000000000081526004016105739061266e565b60405180910390fd5b8073ffffffffffffffffffffffffffffffffffffffff1661059b610c2c565b73ffffffffffffffffffffffffffffffffffffffff1614806105ca57506105c9816105c4610c2c565b610ac2565b5b610609576040517f08c379a00000000000000000000000000000000000000000000000000000000081526004016106009061254e565b60405180910390fd5b6106138383610c34565b505050565b610629610623610c2c565b82610ced565b610668576040517f08c379a000000000000000000000000000000000000000000000000000000000815260040161065f9061268e565b60405180910390fd5b610673838383610dcb565b505050565b6106938383836040518060200160405280600081525061090e565b505050565b60006106a46007611027565b60006106b0600761103d565b90506106bc338261104b565b6106c68184611069565b6106f3600860009054906101000a900473ffffffffffffffffffffffffffffffffffffffff1660016108f8565b80915050919050565b6000806002600084815260200190815260200160002060009054906101000a900473ffffffffffffffffffffffffffffffffffffffff169050600073ffffffffffffffffffffffffffffffffffffffff168173ffffffffffffffffffffffffffffffffffffffff1614156107a5576040517f08c379a000000000000000000000000000000000000000000000000000000000815260040161079c9061258e565b60405180910390fd5b80915050919050565b60008073ffffffffffffffffffffffffffffffffffffffff168273ffffffffffffffffffffffffffffffffffffffff16141561081f576040517f08c379a00000000000000000000000000000000000000000000000000000000081526004016108169061256e565b60405180910390fd5b600360008373ffffffffffffffffffffffffffffffffffffffff1673ffffffffffffffffffffffffffffffffffffffff168152602001908152602001600020549050919050565b6060600180546108759061290e565b80601f01602080910402602001604051908101604052809291908181526020018280546108a19061290e565b80156108ee5780601f106108c3576101008083540402835291602001916108ee565b820191906000526020600020905b8154815290600101906020018083116108d157829003601f168201915b5050505050905090565b61090a610903610c2c565b83836110dd565b5050565b61091f610919610c2c565b83610ced565b61095e576040517f08c379a00000000000000000000000000000000000000000000000000000000081526004016109559061268e565b60405180910390fd5b61096a8484848461124a565b50505050565b606061097b82610bc0565b6109ba576040517f08c379a00000000000000000000000000000000000000000000000000000000081526004016109b1906125ee565b60405180910390fd5b60006006600084815260200190815260200160002080546109da9061290e565b80601f0160208091040260200160405190810160405280929190818152602001828054610a069061290e565b8015610a535780601f10610a2857610100808354040283529160200191610a53565b820191906000526020600020905b815481529060010190602001808311610a3657829003601f168201915b505050505090506000610a646112a6565b9050600081511415610a7a578192505050610abd565b600082511115610aaf578082604051602001610a979291906123e6565b60405160208183030381529060405292505050610abd565b610ab8846112bd565b925050505b919050565b6000600560008473ffffffffffffffffffffffffffffffffffffffff1673ffffffffffffffffffffffffffffffffffffffff16815260200190815260200160002060008373ffffffffffffffffffffffffffffffffffffffff1673ffffffffffffffffffffffffffffffffffffffff16815260200190815260200160002060009054906101000a900460ff16905092915050565b60007f01ffc9a7000000000000000000000000000000000000000000000000000000007bffffffffffffffffffffffffffffffffffffffffffffffffffffffff1916827bffffffffffffffffffffffffffffffffffffffffffffffffffffffff1916149050919050565b60008073ffffffffffffffffffffffffffffffffffffffff166002600084815260200190815260200160002060009054906101000a900473ffffffffffffffffffffffffffffffffffffffff1673ffffffffffffffffffffffffffffffffffffffff1614159050919050565b600033905090565b816004600083815260200190815260200160002060006101000a81548173ffffffffffffffffffffffffffffffffffffffff021916908373ffffffffffffffffffffffffffffffffffffffff160217905550808273ffffffffffffffffffffffffffffffffffffffff16610ca7836106fc565b73ffffffffffffffffffffffffffffffffffffffff167f8c5be1e5ebec7d5bd14f71427d1e84f3dd0314c0f7b2291e5b200ac8c7c3b92560405160405180910390a45050565b6000610cf882610bc0565b610d37576040517f08c379a0000000000000000000000000000000000000000000000000000000008152600401610d2e9061252e565b60405180910390fd5b6000610d42836106fc565b90508073ffffffffffffffffffffffffffffffffffffffff168473ffffffffffffffffffffffffffffffffffffffff161480610db157508373ffffffffffffffffffffffffffffffffffffffff16610d998461047b565b73ffffffffffffffffffffffffffffffffffffffff16145b80610dc25750610dc18185610ac2565b5b91505092915050565b8273ffffffffffffffffffffffffffffffffffffffff16610deb826106fc565b73ffffffffffffffffffffffffffffffffffffffff1614610e41576040517f08c379a0000000000000000000000000000000000000000000000000000000008152600401610e389061262e565b60405180910390fd5b600073ffffffffffffffffffffffffffffffffffffffff168273ffffffffffffffffffffffffffffffffffffffff161415610eb1576040517f08c379a0000000000000000000000000000000000000000000000000000000008152600401610ea8906124ee565b60405180910390fd5b610ebc838383611364565b610ec7600082610c34565b6001600360008573ffffffffffffffffffffffffffffffffffffffff1673ffffffffffffffffffffffffffffffffffffffff1681526020019081526020016000206000828254610f179190612824565b925050819055506001600360008473ffffffffffffffffffffffffffffffffffffffff1673ffffffffffffffffffffffffffffffffffffffff1681526020019081526020016000206000828254610f6e919061279d565b92505081905550816002600083815260200190815260200160002060006101000a81548173ffffffffffffffffffffffffffffffffffffffff021916908373ffffffffffffffffffffffffffffffffffffffff160217905550808273ffffffffffffffffffffffffffffffffffffffff168473ffffffffffffffffffffffffffffffffffffffff167fddf252ad1be2c89b69c2b068fc378daa952ba7f163c4a11628f55a4df523b3ef60405160405180910390a4505050565b6001816000016000828254019250508190555050565b600081600001549050919050565b611065828260405180602001604052806000815250611369565b5050565b61107282610bc0565b6110b1576040517f08c379a00000000000000000000000000000000000000000000000000000000081526004016110a8906125ae565b60405180910390fd5b806006600084815260200190815260200160002090805190602001906110d89291906118e9565b505050565b8173ffffffffffffffffffffffffffffffffffffffff168373ffffffffffffffffffffffffffffffffffffffff16141561114c576040517f08c379a00000000000000000000000000000000000000000000000000000000081526004016111439061250e565b60405180910390fd5b80600560008573ffffffffffffffffffffffffffffffffffffffff1673ffffffffffffffffffffffffffffffffffffffff16815260200190815260200160002060008473ffffffffffffffffffffffffffffffffffffffff1673ffffffffffffffffffffffffffffffffffffffff16815260200190815260200160002060006101000a81548160ff0219169083151502179055508173ffffffffffffffffffffffffffffffffffffffff168373ffffffffffffffffffffffffffffffffffffffff167f17307eab39ab6107e8899845ad3d59bd9653f200f220920489ca2b5937696c318360405161123d9190612471565b60405180910390a3505050565b611255848484610dcb565b611261848484846113c4565b6112a0576040517f08c379a0000000000000000000000000000000000000000000000000000000008152600401611297906124ae565b60405180910390fd5b50505050565b606060405180602001604052806000815250905090565b60606112c882610bc0565b611307576040517f08c379a00000000000000000000000000000000000000000000000000000000081526004016112fe9061264e565b60405180910390fd5b60006113116112a6565b90506000815111611331576040518060200160405280600081525061135c565b8061133b8461155b565b60405160200161134c9291906123e6565b6040516020818303038152906040525b915050919050565b505050565b6113738383611708565b61138060008484846113c4565b6113bf576040517f08c379a00000000000000000000000000000000000000000000000000000000081526004016113b6906124ae565b60405180910390fd5b505050565b60006113e58473ffffffffffffffffffffffffffffffffffffffff166118d6565b1561154e578373ffffffffffffffffffffffffffffffffffffffff1663150b7a0261140e610c2c565b8786866040518563ffffffff1660e01b81526004016114309493929190612425565b602060405180830381600087803b15801561144a57600080fd5b505af192505050801561147b57506040513d601f19601f820116820180604052508101906114789190611c95565b60015b6114fe573d80600081146114ab576040519150601f19603f3d011682016040523d82523d6000602084013e6114b0565b606091505b506000815114156114f6576040517f08c379a00000000000000000000000000000000000000000000000000000000081526004016114ed906124ae565b60405180910390fd5b805181602001fd5b63150b7a0260e01b7bffffffffffffffffffffffffffffffffffffffffffffffffffffffff1916817bffffffffffffffffffffffffffffffffffffffffffffffffffffffff191614915050611553565b600190505b949350505050565b606060008214156115a3576040518060400160405280600181526020017f30000000000000000000000000000000000000000000000000000000000000008152509050611703565b600082905060005b600082146115d55780806115be90612940565b915050600a826115ce91906127f3565b91506115ab565b60008167ffffffffffffffff811115611617577f4e487b7100000000000000000000000000000000000000000000000000000000600052604160045260246000fd5b6040519080825280601f01601f1916602001820160405280156116495781602001600182028036833780820191505090505b5090505b600085146116fc576001826116629190612824565b9150600a856116719190612989565b603061167d919061279d565b60f81b8183815181106116b9577f4e487b7100000000000000000000000000000000000000000000000000000000600052603260045260246000fd5b60200101907effffffffffffffffffffffffffffffffffffffffffffffffffffffffffffff1916908160001a905350600a856116f591906127f3565b945061164d565b8093505050505b919050565b600073ffffffffffffffffffffffffffffffffffffffff168273ffffffffffffffffffffffffffffffffffffffff161415611778576040517f08c379a000000000000000000000000000000000000000000000000000000000815260040161176f906125ce565b60405180910390fd5b61178181610bc0565b156117c1576040517f08c379a00000000000000000000000000000000000000000000000000000000081526004016117b8906124ce565b60405180910390fd5b6117cd60008383611364565b6001600360008473ffffffffffffffffffffffffffffffffffffffff1673ffffffffffffffffffffffffffffffffffffffff168152602001908152602001600020600082825461181d919061279d565b92505081905550816002600083815260200190815260200160002060006101000a81548173ffffffffffffffffffffffffffffffffffffffff021916908373ffffffffffffffffffffffffffffffffffffffff160217905550808273ffffffffffffffffffffffffffffffffffffffff16600073ffffffffffffffffffffffffffffffffffffffff167fddf252ad1be2c89b69c2b068fc378daa952ba7f163c4a11628f55a4df523b3ef60405160405180910390a45050565b600080823b905060008111915050919050565b8280546118f59061290e565b90600052602060002090601f016020900481019282611917576000855561195e565b82601f1061193057805160ff191683800117855561195e565b8280016001018555821561195e579182015b8281111561195d578251825591602001919060010190611942565b5b50905061196b919061196f565b5090565b5b80821115611988576000816000905550600101611970565b5090565b600061199f61199a846126fa565b6126c9565b9050828152602081018484840111156119b757600080fd5b6119c28482856128cc565b509392505050565b60006119dd6119d88461272a565b6126c9565b9050828152602081018484840111156119f557600080fd5b611a008482856128cc565b509392505050565b600081359050611a1781612a87565b92915050565b600081359050611a2c81612a9e565b92915050565b600081359050611a4181612ab5565b92915050565b600081519050611a5681612ab5565b92915050565b600082601f830112611a6d57600080fd5b8135611a7d84826020860161198c565b91505092915050565b600082601f830112611a9757600080fd5b8135611aa78482602086016119ca565b91505092915050565b600081359050611abf81612acc565b92915050565b600060208284031215611ad757600080fd5b6000611ae584828501611a08565b91505092915050565b60008060408385031215611b0157600080fd5b6000611b0f85828601611a08565b9250506020611b2085828601611a08565b9150509250929050565b600080600060608486031215611b3f57600080fd5b6000611b4d86828701611a08565b9350506020611b5e86828701611a08565b9250506040611b6f86828701611ab0565b9150509250925092565b60008060008060808587031215611b8f57600080fd5b6000611b9d87828801611a08565b9450506020611bae87828801611a08565b9350506040611bbf87828801611ab0565b925050606085013567ffffffffffffffff811115611bdc57600080fd5b611be887828801611a5c565b91505092959194509250565b60008060408385031215611c0757600080fd5b6000611c1585828601611a08565b9250506020611c2685828601611a1d565b9150509250929050565b60008060408385031215611c4357600080fd5b6000611c5185828601611a08565b9250506020611c6285828601611ab0565b9150509250929050565b600060208284031215611c7e57600080fd5b6000611c8c84828501611a32565b91505092915050565b600060208284031215611ca757600080fd5b6000611cb584828501611a47565b91505092915050565b600060208284031215611cd057600080fd5b600082013567ffffffffffffffff811115611cea57600080fd5b611cf684828501611a86565b91505092915050565b600060208284031215611d1157600080fd5b6000611d1f84828501611ab0565b91505092915050565b611d3181612858565b82525050565b611d408161286a565b82525050565b6000611d518261275a565b611d5b8185612770565b9350611d6b8185602086016128db565b611d7481612a76565b840191505092915050565b6000611d8a82612765565b611d948185612781565b9350611da48185602086016128db565b611dad81612a76565b840191505092915050565b6000611dc382612765565b611dcd8185612792565b9350611ddd8185602086016128db565b80840191505092915050565b6000611df6603283612781565b91507f4552433732313a207472616e7366657220746f206e6f6e20455243373231526560008301527f63656976657220696d706c656d656e74657200000000000000000000000000006020830152604082019050919050565b6000611e5c601c83612781565b91507f4552433732313a20746f6b656e20616c7265616479206d696e746564000000006000830152602082019050919050565b6000611e9c602483612781565b91507f4552433732313a207472616e7366657220746f20746865207a65726f2061646460008301527f72657373000000000000000000000000000000000000000000000000000000006020830152604082019050919050565b6000611f02601983612781565b91507f4552433732313a20617070726f766520746f2063616c6c6572000000000000006000830152602082019050919050565b6000611f42602c83612781565b91507f4552433732313a206f70657261746f7220717565727920666f72206e6f6e657860008301527f697374656e7420746f6b656e00000000000000000000000000000000000000006020830152604082019050919050565b6000611fa8603883612781565b91507f4552433732313a20617070726f76652063616c6c6572206973206e6f74206f7760008301527f6e6572206e6f7220617070726f76656420666f7220616c6c00000000000000006020830152604082019050919050565b600061200e602a83612781565b91507f4552433732313a2062616c616e636520717565727920666f7220746865207a6560008301527f726f2061646472657373000000000000000000000000000000000000000000006020830152604082019050919050565b6000612074602983612781565b91507f4552433732313a206f776e657220717565727920666f72206e6f6e657869737460008301527f656e7420746f6b656e00000000000000000000000000000000000000000000006020830152604082019050919050565b60006120da602e83612781565b91507f45524337323155524953746f726167653a2055524920736574206f66206e6f6e60008301527f6578697374656e7420746f6b656e0000000000000000000000000000000000006020830152604082019050919050565b6000612140602083612781565b91507f4552433732313a206d696e7420746f20746865207a65726f20616464726573736000830152602082019050919050565b6000612180603183612781565b91507f45524337323155524953746f726167653a2055524920717565727920666f722060008301527f6e6f6e6578697374656e7420746f6b656e0000000000000000000000000000006020830152604082019050919050565b60006121e6602c83612781565b91507f4552433732313a20617070726f76656420717565727920666f72206e6f6e657860008301527f697374656e7420746f6b656e00000000000000000000000000000000000000006020830152604082019050919050565b600061224c602983612781565b91507f4552433732313a207472616e73666572206f6620746f6b656e2074686174206960008301527f73206e6f74206f776e00000000000000000000000000000000000000000000006020830152604082019050919050565b60006122b2602f83612781565b91507f4552433732314d657461646174613a2055524920717565727920666f72206e6f60008301527f6e6578697374656e7420746f6b656e00000000000000000000000000000000006020830152604082019050919050565b6000612318602183612781565b91507f4552433732313a20617070726f76616c20746f2063757272656e74206f776e6560008301527f72000000000000000000000000000000000000000000000000000000000000006020830152604082019050919050565b600061237e603183612781565b91507f4552433732313a207472616e736665722063616c6c6572206973206e6f74206f60008301527f776e6572206e6f7220617070726f7665640000000000000000000000000000006020830152604082019050919050565b6123e0816128c2565b82525050565b60006123f28285611db8565b91506123fe8284611db8565b91508190509392505050565b600060208201905061241f6000830184611d28565b92915050565b600060808201905061243a6000830187611d28565b6124476020830186611d28565b61245460408301856123d7565b81810360608301526124668184611d46565b905095945050505050565b60006020820190506124866000830184611d37565b92915050565b600060208201905081810360008301526124a68184611d7f565b905092915050565b600060208201905081810360008301526124c781611de9565b9050919050565b600060208201905081810360008301526124e781611e4f565b9050919050565b6000602082019050818103600083015261250781611e8f565b9050919050565b6000602082019050818103600083015261252781611ef5565b9050919050565b6000602082019050818103600083015261254781611f35565b9050919050565b6000602082019050818103600083015261256781611f9b565b9050919050565b6000602082019050818103600083015261258781612001565b9050919050565b600060208201905081810360008301526125a781612067565b9050919050565b600060208201905081810360008301526125c7816120cd565b9050919050565b600060208201905081810360008301526125e781612133565b9050919050565b6000602082019050818103600083015261260781612173565b9050919050565b60006020820190508181036000830152612627816121d9565b9050919050565b600060208201905081810360008301526126478161223f565b9050919050565b60006020820190508181036000830152612667816122a5565b9050919050565b600060208201905081810360008301526126878161230b565b9050919050565b600060208201905081810360008301526126a781612371565b9050919050565b60006020820190506126c360008301846123d7565b92915050565b6000604051905081810181811067ffffffffffffffff821117156126f0576126ef612a47565b5b8060405250919050565b600067ffffffffffffffff82111561271557612714612a47565b5b601f19601f8301169050602081019050919050565b600067ffffffffffffffff82111561274557612744612a47565b5b601f19601f8301169050602081019050919050565b600081519050919050565b600081519050919050565b600082825260208201905092915050565b600082825260208201905092915050565b600081905092915050565b60006127a8826128c2565b91506127b3836128c2565b9250827fffffffffffffffffffffffffffffffffffffffffffffffffffffffffffffffff038211156127e8576127e76129ba565b5b828201905092915050565b60006127fe826128c2565b9150612809836128c2565b925082612819576128186129e9565b5b828204905092915050565b600061282f826128c2565b915061283a836128c2565b92508282101561284d5761284c6129ba565b5b828203905092915050565b6000612863826128a2565b9050919050565b60008115159050919050565b60007fffffffff0000000000000000000000000000000000000000000000000000000082169050919050565b600073ffffffffffffffffffffffffffffffffffffffff82169050919050565b6000819050919050565b82818337600083830152505050565b60005b838110156128f95780820151818401526020810190506128de565b83811115612908576000848401525b50505050565b6000600282049050600182168061292657607f821691505b6020821081141561293a57612939612a18565b5b50919050565b600061294b826128c2565b91507fffffffffffffffffffffffffffffffffffffffffffffffffffffffffffffffff82141561297e5761297d6129ba565b5b600182019050919050565b6000612994826128c2565b915061299f836128c2565b9250826129af576129ae6129e9565b5b828206905092915050565b7f4e487b7100000000000000000000000000000000000000000000000000000000600052601160045260246000fd5b7f4e487b7100000000000000000000000000000000000000000000000000000000600052601260045260246000fd5b7f4e487b7100000000000000000000000000000000000000000000000000000000600052602260045260246000fd5b7f4e487b7100000000000000000000000000000000000000000000000000000000600052604160045260246000fd5b6000601f19601f8301169050919050565b612a9081612858565b8114612a9b57600080fd5b50565b612aa78161286a565b8114612ab257600080fd5b50565b612abe81612876565b8114612ac957600080fd5b50565b612ad5816128c2565b8114612ae057600080fd5b5056fea2646970667358221220b9ad785ac73445f73c6fe49cb5db3b821517f6269a329232536e7518aff5e01364736f6c63430008000033",
  "linkReferences": {},
  "deployedLinkReferences": {}
}